{
  "contractName": "NFTMarketplace",
  "abi": [
    {
      "inputs": [],
      "stateMutability": "nonpayable",
      "type": "constructor"
    },
    {
      "anonymous": false,
      "inputs": [
        {
          "indexed": true,
          "internalType": "address",
          "name": "owner",
          "type": "address"
        },
        {
          "indexed": true,
          "internalType": "address",
          "name": "approved",
          "type": "address"
        },
        {
          "indexed": true,
          "internalType": "uint256",
          "name": "tokenId",
          "type": "uint256"
        }
      ],
      "name": "Approval",
      "type": "event"
    },
    {
      "anonymous": false,
      "inputs": [
        {
          "indexed": true,
          "internalType": "address",
          "name": "owner",
          "type": "address"
        },
        {
          "indexed": true,
          "internalType": "address",
          "name": "operator",
          "type": "address"
        },
        {
          "indexed": false,
          "internalType": "bool",
          "name": "approved",
          "type": "bool"
        }
      ],
      "name": "ApprovalForAll",
      "type": "event"
    },
    {
      "anonymous": false,
      "inputs": [
        {
          "indexed": true,
          "internalType": "uint256",
          "name": "tokenId",
          "type": "uint256"
        },
        {
          "indexed": false,
          "internalType": "address",
          "name": "seller",
          "type": "address"
        },
        {
          "indexed": false,
          "internalType": "address",
          "name": "owner",
          "type": "address"
        },
        {
          "indexed": false,
          "internalType": "uint256",
          "name": "price",
          "type": "uint256"
        },
        {
          "indexed": false,
          "internalType": "bool",
          "name": "sold",
          "type": "bool"
        }
      ],
      "name": "MarketItemCreated",
      "type": "event"
    },
    {
      "anonymous": false,
      "inputs": [
        {
          "indexed": true,
          "internalType": "address",
          "name": "from",
          "type": "address"
        },
        {
          "indexed": true,
          "internalType": "address",
          "name": "to",
          "type": "address"
        },
        {
          "indexed": true,
          "internalType": "uint256",
          "name": "tokenId",
          "type": "uint256"
        }
      ],
      "name": "Transfer",
      "type": "event"
    },
    {
      "anonymous": false,
      "inputs": [
        {
          "indexed": false,
          "internalType": "uint256",
          "name": "tokenId",
          "type": "uint256"
        },
        {
          "indexed": false,
          "internalType": "address",
          "name": "seller",
          "type": "address"
        },
        {
          "indexed": false,
          "internalType": "address",
          "name": "owner",
          "type": "address"
        }
      ],
      "name": "buyEvent",
      "type": "event"
    },
    {
      "anonymous": false,
      "inputs": [
        {
          "indexed": false,
          "internalType": "uint256",
          "name": "tokenId",
          "type": "uint256"
        },
        {
          "indexed": false,
          "internalType": "address",
          "name": "seller",
          "type": "address"
        },
        {
          "indexed": false,
          "internalType": "address",
          "name": "owner",
          "type": "address"
        },
        {
          "indexed": false,
          "internalType": "uint256",
          "name": "price",
          "type": "uint256"
        }
      ],
      "name": "resellEvent",
      "type": "event"
    },
    {
      "inputs": [
        {
          "internalType": "address",
          "name": "to",
          "type": "address"
        },
        {
          "internalType": "uint256",
          "name": "tokenId",
          "type": "uint256"
        }
      ],
      "name": "approve",
      "outputs": [],
      "stateMutability": "nonpayable",
      "type": "function"
    },
    {
      "inputs": [
        {
          "internalType": "address",
          "name": "owner",
          "type": "address"
        }
      ],
      "name": "balanceOf",
      "outputs": [
        {
          "internalType": "uint256",
          "name": "",
          "type": "uint256"
        }
      ],
      "stateMutability": "view",
      "type": "function",
      "constant": true
    },
    {
      "inputs": [
        {
          "internalType": "uint256",
          "name": "tokenId",
          "type": "uint256"
        }
      ],
      "name": "getApproved",
      "outputs": [
        {
          "internalType": "address",
          "name": "",
          "type": "address"
        }
      ],
      "stateMutability": "view",
      "type": "function",
      "constant": true
    },
    {
      "inputs": [
        {
          "internalType": "address",
          "name": "owner",
          "type": "address"
        },
        {
          "internalType": "address",
          "name": "operator",
          "type": "address"
        }
      ],
      "name": "isApprovedForAll",
      "outputs": [
        {
          "internalType": "bool",
          "name": "",
          "type": "bool"
        }
      ],
      "stateMutability": "view",
      "type": "function",
      "constant": true
    },
    {
      "inputs": [],
      "name": "name",
      "outputs": [
        {
          "internalType": "string",
          "name": "",
          "type": "string"
        }
      ],
      "stateMutability": "view",
      "type": "function",
      "constant": true
    },
    {
      "inputs": [
        {
          "internalType": "uint256",
          "name": "tokenId",
          "type": "uint256"
        }
      ],
      "name": "ownerOf",
      "outputs": [
        {
          "internalType": "address",
          "name": "",
          "type": "address"
        }
      ],
      "stateMutability": "view",
      "type": "function",
      "constant": true
    },
    {
      "inputs": [
        {
          "internalType": "address",
          "name": "from",
          "type": "address"
        },
        {
          "internalType": "address",
          "name": "to",
          "type": "address"
        },
        {
          "internalType": "uint256",
          "name": "tokenId",
          "type": "uint256"
        }
      ],
      "name": "safeTransferFrom",
      "outputs": [],
      "stateMutability": "nonpayable",
      "type": "function"
    },
    {
      "inputs": [
        {
          "internalType": "address",
          "name": "from",
          "type": "address"
        },
        {
          "internalType": "address",
          "name": "to",
          "type": "address"
        },
        {
          "internalType": "uint256",
          "name": "tokenId",
          "type": "uint256"
        },
        {
          "internalType": "bytes",
          "name": "data",
          "type": "bytes"
        }
      ],
      "name": "safeTransferFrom",
      "outputs": [],
      "stateMutability": "nonpayable",
      "type": "function"
    },
    {
      "inputs": [
        {
          "internalType": "address",
          "name": "operator",
          "type": "address"
        },
        {
          "internalType": "bool",
          "name": "approved",
          "type": "bool"
        }
      ],
      "name": "setApprovalForAll",
      "outputs": [],
      "stateMutability": "nonpayable",
      "type": "function"
    },
    {
      "inputs": [
        {
          "internalType": "bytes4",
          "name": "interfaceId",
          "type": "bytes4"
        }
      ],
      "name": "supportsInterface",
      "outputs": [
        {
          "internalType": "bool",
          "name": "",
          "type": "bool"
        }
      ],
      "stateMutability": "view",
      "type": "function",
      "constant": true
    },
    {
      "inputs": [],
      "name": "symbol",
      "outputs": [
        {
          "internalType": "string",
          "name": "",
          "type": "string"
        }
      ],
      "stateMutability": "view",
      "type": "function",
      "constant": true
    },
    {
      "inputs": [
        {
          "internalType": "uint256",
          "name": "tokenId",
          "type": "uint256"
        }
      ],
      "name": "tokenURI",
      "outputs": [
        {
          "internalType": "string",
          "name": "",
          "type": "string"
        }
      ],
      "stateMutability": "view",
      "type": "function",
      "constant": true
    },
    {
      "inputs": [
        {
          "internalType": "address",
          "name": "from",
          "type": "address"
        },
        {
          "internalType": "address",
          "name": "to",
          "type": "address"
        },
        {
          "internalType": "uint256",
          "name": "tokenId",
          "type": "uint256"
        }
      ],
      "name": "transferFrom",
      "outputs": [],
      "stateMutability": "nonpayable",
      "type": "function"
    },
    {
      "inputs": [
        {
          "internalType": "uint256",
          "name": "_listingPrice",
          "type": "uint256"
        }
      ],
      "name": "updateListingPrice",
      "outputs": [],
      "stateMutability": "payable",
      "type": "function",
      "payable": true
    },
    {
      "inputs": [],
      "name": "getListingPrice",
      "outputs": [
        {
          "internalType": "uint256",
          "name": "",
          "type": "uint256"
        }
      ],
      "stateMutability": "view",
      "type": "function",
      "constant": true
    },
    {
      "inputs": [
        {
          "internalType": "string",
          "name": "tokenURI",
          "type": "string"
        },
        {
          "internalType": "uint256",
          "name": "price",
          "type": "uint256"
        }
      ],
      "name": "createToken",
      "outputs": [
        {
          "internalType": "uint256",
          "name": "",
          "type": "uint256"
        }
      ],
      "stateMutability": "payable",
      "type": "function",
      "payable": true
    },
    {
      "inputs": [
        {
          "internalType": "uint256",
          "name": "tokenId",
          "type": "uint256"
        }
      ],
      "name": "deleteNft",
      "outputs": [],
      "stateMutability": "nonpayable",
      "type": "function"
    },
    {
      "inputs": [
        {
          "internalType": "uint256",
          "name": "tokenId",
          "type": "uint256"
        },
        {
          "internalType": "uint256",
          "name": "price",
          "type": "uint256"
        }
      ],
      "name": "resellToken",
      "outputs": [],
      "stateMutability": "payable",
      "type": "function",
      "payable": true
    },
    {
      "inputs": [
        {
          "internalType": "uint256",
          "name": "tokenId",
          "type": "uint256"
        }
      ],
      "name": "createMarketSale",
      "outputs": [],
      "stateMutability": "payable",
      "type": "function",
      "payable": true
    },
    {
      "inputs": [],
      "name": "fetchMarketItems",
      "outputs": [
        {
          "components": [
            {
              "internalType": "uint256",
              "name": "tokenId",
              "type": "uint256"
            },
            {
              "internalType": "address payable",
              "name": "seller",
              "type": "address"
            },
            {
              "internalType": "address payable",
              "name": "owner",
              "type": "address"
            },
            {
              "internalType": "uint256",
              "name": "price",
              "type": "uint256"
            },
            {
              "internalType": "bool",
              "name": "sold",
              "type": "bool"
            }
          ],
          "internalType": "struct NFTMarketplace.MarketItem[]",
          "name": "",
          "type": "tuple[]"
        }
      ],
      "stateMutability": "view",
      "type": "function",
      "constant": true
    },
    {
      "inputs": [],
      "name": "fetchMyNFTs",
      "outputs": [
        {
          "components": [
            {
              "internalType": "uint256",
              "name": "tokenId",
              "type": "uint256"
            },
            {
              "internalType": "address payable",
              "name": "seller",
              "type": "address"
            },
            {
              "internalType": "address payable",
              "name": "owner",
              "type": "address"
            },
            {
              "internalType": "uint256",
              "name": "price",
              "type": "uint256"
            },
            {
              "internalType": "bool",
              "name": "sold",
              "type": "bool"
            }
          ],
          "internalType": "struct NFTMarketplace.MarketItem[]",
          "name": "",
          "type": "tuple[]"
        }
      ],
      "stateMutability": "view",
      "type": "function",
      "constant": true
    },
    {
      "inputs": [
        {
          "internalType": "uint256",
          "name": "tokenId",
          "type": "uint256"
        }
      ],
      "name": "fetchSingleNft",
      "outputs": [
        {
          "components": [
            {
              "internalType": "uint256",
              "name": "tokenId",
              "type": "uint256"
            },
            {
              "internalType": "address payable",
              "name": "seller",
              "type": "address"
            },
            {
              "internalType": "address payable",
              "name": "owner",
              "type": "address"
            },
            {
              "internalType": "uint256",
              "name": "price",
              "type": "uint256"
            },
            {
              "internalType": "bool",
              "name": "sold",
              "type": "bool"
            }
          ],
          "internalType": "struct NFTMarketplace.MarketItem",
          "name": "",
          "type": "tuple"
        }
      ],
      "stateMutability": "view",
      "type": "function",
      "constant": true
    },
    {
      "inputs": [],
      "name": "fetchItemsListed",
      "outputs": [
        {
          "components": [
            {
              "internalType": "uint256",
              "name": "tokenId",
              "type": "uint256"
            },
            {
              "internalType": "address payable",
              "name": "seller",
              "type": "address"
            },
            {
              "internalType": "address payable",
              "name": "owner",
              "type": "address"
            },
            {
              "internalType": "uint256",
              "name": "price",
              "type": "uint256"
            },
            {
              "internalType": "bool",
              "name": "sold",
              "type": "bool"
            }
          ],
          "internalType": "struct NFTMarketplace.MarketItem[]",
          "name": "",
          "type": "tuple[]"
        }
      ],
      "stateMutability": "view",
      "type": "function",
      "constant": true
    }
  ],
  "bytecode": "0x60806040526658d15e176280006009553480156200001c57600080fd5b506040518060400160405280601081526020017f4d657461766572736520546f6b656e73000000000000000000000000000000008152506040518060400160405280600481526020017f4d4554540000000000000000000000000000000000000000000000000000000081525081600090816200009a919062000370565b508060019081620000ac919062000370565b50505033600a60006101000a81548173ffffffffffffffffffffffffffffffffffffffff021916908373ffffffffffffffffffffffffffffffffffffffff16021790555062000457565b600081519050919050565b7f4e487b7100000000000000000000000000000000000000000000000000000000600052604160045260246000fd5b7f4e487b7100000000000000000000000000000000000000000000000000000000600052602260045260246000fd5b600060028204905060018216806200017857607f821691505b6020821081036200018e576200018d62000130565b5b50919050565b60008190508160005260206000209050919050565b60006020601f8301049050919050565b600082821b905092915050565b600060088302620001f87fffffffffffffffffffffffffffffffffffffffffffffffffffffffffffffffff82620001b9565b620002048683620001b9565b95508019841693508086168417925050509392505050565b6000819050919050565b6000819050919050565b6000620002516200024b62000245846200021c565b62000226565b6200021c565b9050919050565b6000819050919050565b6200026d8362000230565b620002856200027c8262000258565b848454620001c6565b825550505050565b600090565b6200029c6200028d565b620002a981848462000262565b505050565b5b81811015620002d157620002c560008262000292565b600181019050620002af565b5050565b601f8211156200032057620002ea8162000194565b620002f584620001a9565b8101602085101562000305578190505b6200031d6200031485620001a9565b830182620002ae565b50505b505050565b600082821c905092915050565b6000620003456000198460080262000325565b1980831691505092915050565b600062000360838362000332565b9150826002028217905092915050565b6200037b82620000f6565b67ffffffffffffffff81111562000397576200039662000101565b5b620003a382546200015f565b620003b0828285620002d5565b600060209050601f831160018114620003e85760008415620003d3578287015190505b620003df858262000352565b8655506200044f565b601f198416620003f88662000194565b60005b828110156200042257848901518255600182019150602085019450602081019050620003fb565b868310156200044257848901516200043e601f89168262000332565b8355505b6001600288020188555050505b505050505050565b61486a80620004676000396000f3fe6080604052600436106101405760003560e01c806370a08231116100b6578063be9af5361161006f578063be9af53614610454578063c87b56dd14610470578063e219fc75146104ad578063e985e9c5146104c9578063f0db4ba614610506578063f6b157a81461054357610140565b806370a082311461034e57806372b3b6201461038b57806395d89b41146103bb578063a22cb465146103e6578063ae677aa31461040f578063b88d4fde1461042b57610140565b806312e855851161010857806312e855851461023e578063202e37401461026957806323b872dd1461029457806342842e0e146102bd57806345f8fa80146102e65780636352211e1461031157610140565b806301ffc9a71461014557806306fdde0314610182578063081812fc146101ad578063095ea7b3146101ea5780630f08efe014610213575b600080fd5b34801561015157600080fd5b5061016c60048036038101906101679190612f9d565b61056c565b6040516101799190612fe5565b60405180910390f35b34801561018e57600080fd5b5061019761064e565b6040516101a49190613090565b60405180910390f35b3480156101b957600080fd5b506101d460048036038101906101cf91906130e8565b6106e0565b6040516101e19190613156565b60405180910390f35b3480156101f657600080fd5b50610211600480360381019061020c919061319d565b610726565b005b34801561021f57600080fd5b5061022861083d565b6040516102359190613333565b60405180910390f35b34801561024a57600080fd5b50610253610aa5565b6040516102609190613364565b60405180910390f35b34801561027557600080fd5b5061027e610aaf565b60405161028b9190613333565b60405180910390f35b3480156102a057600080fd5b506102bb60048036038101906102b6919061337f565b610d9b565b005b3480156102c957600080fd5b506102e460048036038101906102df919061337f565b610dfb565b005b3480156102f257600080fd5b506102fb610e1b565b6040516103089190613333565b60405180910390f35b34801561031d57600080fd5b50610338600480360381019061033391906130e8565b611107565b6040516103459190613156565b60405180910390f35b34801561035a57600080fd5b50610375600480360381019061037091906133d2565b61118d565b6040516103829190613364565b60405180910390f35b6103a560048036038101906103a09190613534565b611244565b6040516103b29190613364565b60405180910390f35b3480156103c757600080fd5b506103d0611286565b6040516103dd9190613090565b60405180910390f35b3480156103f257600080fd5b5061040d600480360381019061040891906135bc565b611318565b005b610429600480360381019061042491906130e8565b61132e565b005b34801561043757600080fd5b50610452600480360381019061044d919061369d565b611458565b005b61046e600480360381019061046991906130e8565b6114ba565b005b34801561047c57600080fd5b50610497600480360381019061049291906130e8565b61172e565b6040516104a49190613090565b60405180910390f35b6104c760048036038101906104c29190613720565b611840565b005b3480156104d557600080fd5b506104f060048036038101906104eb9190613760565b611a72565b6040516104fd9190612fe5565b60405180910390f35b34801561051257600080fd5b5061052d600480360381019061052891906130e8565b611b06565b60405161053a9190613808565b60405180910390f35b34801561054f57600080fd5b5061056a600480360381019061056591906130e8565b611c0e565b005b60007f80ac58cd000000000000000000000000000000000000000000000000000000007bffffffffffffffffffffffffffffffffffffffffffffffffffffffff1916827bffffffffffffffffffffffffffffffffffffffffffffffffffffffff1916148061063757507f5b5e139f000000000000000000000000000000000000000000000000000000007bffffffffffffffffffffffffffffffffffffffffffffffffffffffff1916827bffffffffffffffffffffffffffffffffffffffffffffffffffffffff1916145b80610647575061064682611d07565b5b9050919050565b60606000805461065d90613852565b80601f016020809104026020016040519081016040528092919081815260200182805461068990613852565b80156106d65780601f106106ab576101008083540402835291602001916106d6565b820191906000526020600020905b8154815290600101906020018083116106b957829003601f168201915b5050505050905090565b60006106eb82611d71565b6004600083815260200190815260200160002060009054906101000a900473ffffffffffffffffffffffffffffffffffffffff169050919050565b600061073182611107565b90508073ffffffffffffffffffffffffffffffffffffffff168373ffffffffffffffffffffffffffffffffffffffff16036107a1576040517f08c379a0000000000000000000000000000000000000000000000000000000008152600401610798906138f5565b60405180910390fd5b8073ffffffffffffffffffffffffffffffffffffffff166107c0611dbc565b73ffffffffffffffffffffffffffffffffffffffff1614806107ef57506107ee816107e9611dbc565b611a72565b5b61082e576040517f08c379a000000000000000000000000000000000000000000000000000000000815260040161082590613987565b60405180910390fd5b6108388383611dc4565b505050565b6060600061084b6007611e7d565b905060006108596008611e7d565b6108636007611e7d565b61086d91906139d6565b90506000808267ffffffffffffffff81111561088c5761088b613409565b5b6040519080825280602002602001820160405280156108c557816020015b6108b2612ed4565b8152602001906001900390816108aa5790505b50905060005b84811015610a9a573073ffffffffffffffffffffffffffffffffffffffff16600b60006001846108fb9190613a0a565b815260200190815260200160002060020160009054906101000a900473ffffffffffffffffffffffffffffffffffffffff1673ffffffffffffffffffffffffffffffffffffffff1603610a875760006001826109579190613a0a565b90506000600b60008381526020019081526020016000206040518060a0016040529081600082015481526020016001820160009054906101000a900473ffffffffffffffffffffffffffffffffffffffff1673ffffffffffffffffffffffffffffffffffffffff1673ffffffffffffffffffffffffffffffffffffffff1681526020016002820160009054906101000a900473ffffffffffffffffffffffffffffffffffffffff1673ffffffffffffffffffffffffffffffffffffffff1673ffffffffffffffffffffffffffffffffffffffff168152602001600382015481526020016004820160009054906101000a900460ff161515151581525050905080848681518110610a6a57610a69613a3e565b5b6020026020010181905250600185610a829190613a0a565b945050505b8080610a9290613a6d565b9150506108cb565b508094505050505090565b6000600954905090565b60606000610abd6007611e7d565b905060008060005b83811015610b65573373ffffffffffffffffffffffffffffffffffffffff16600b6000600184610af59190613a0a565b815260200190815260200160002060020160009054906101000a900473ffffffffffffffffffffffffffffffffffffffff1673ffffffffffffffffffffffffffffffffffffffff1603610b5257600183610b4f9190613a0a565b92505b8080610b5d90613a6d565b915050610ac5565b5060008267ffffffffffffffff811115610b8257610b81613409565b5b604051908082528060200260200182016040528015610bbb57816020015b610ba8612ed4565b815260200190600190039081610ba05790505b50905060005b84811015610d90573373ffffffffffffffffffffffffffffffffffffffff16600b6000600184610bf19190613a0a565b815260200190815260200160002060020160009054906101000a900473ffffffffffffffffffffffffffffffffffffffff1673ffffffffffffffffffffffffffffffffffffffff1603610d7d576000600182610c4d9190613a0a565b90506000600b60008381526020019081526020016000206040518060a0016040529081600082015481526020016001820160009054906101000a900473ffffffffffffffffffffffffffffffffffffffff1673ffffffffffffffffffffffffffffffffffffffff1673ffffffffffffffffffffffffffffffffffffffff1681526020016002820160009054906101000a900473ffffffffffffffffffffffffffffffffffffffff1673ffffffffffffffffffffffffffffffffffffffff1673ffffffffffffffffffffffffffffffffffffffff168152602001600382015481526020016004820160009054906101000a900460ff161515151581525050905080848681518110610d6057610d5f613a3e565b5b6020026020010181905250600185610d789190613a0a565b945050505b8080610d8890613a6d565b915050610bc1565b508094505050505090565b610dac610da6611dbc565b82611e8b565b610deb576040517f08c379a0000000000000000000000000000000000000000000000000000000008152600401610de290613b27565b60405180910390fd5b610df6838383611f20565b505050565b610e1683838360405180602001604052806000815250611458565b505050565b60606000610e296007611e7d565b905060008060005b83811015610ed1573373ffffffffffffffffffffffffffffffffffffffff16600b6000600184610e619190613a0a565b815260200190815260200160002060010160009054906101000a900473ffffffffffffffffffffffffffffffffffffffff1673ffffffffffffffffffffffffffffffffffffffff1603610ebe57600183610ebb9190613a0a565b92505b8080610ec990613a6d565b915050610e31565b5060008267ffffffffffffffff811115610eee57610eed613409565b5b604051908082528060200260200182016040528015610f2757816020015b610f14612ed4565b815260200190600190039081610f0c5790505b50905060005b848110156110fc573373ffffffffffffffffffffffffffffffffffffffff16600b6000600184610f5d9190613a0a565b815260200190815260200160002060010160009054906101000a900473ffffffffffffffffffffffffffffffffffffffff1673ffffffffffffffffffffffffffffffffffffffff16036110e9576000600182610fb99190613a0a565b90506000600b60008381526020019081526020016000206040518060a0016040529081600082015481526020016001820160009054906101000a900473ffffffffffffffffffffffffffffffffffffffff1673ffffffffffffffffffffffffffffffffffffffff1673ffffffffffffffffffffffffffffffffffffffff1681526020016002820160009054906101000a900473ffffffffffffffffffffffffffffffffffffffff1673ffffffffffffffffffffffffffffffffffffffff1673ffffffffffffffffffffffffffffffffffffffff168152602001600382015481526020016004820160009054906101000a900460ff1615151515815250509050808486815181106110cc576110cb613a3e565b5b60200260200101819052506001856110e49190613a0a565b945050505b80806110f490613a6d565b915050610f2d565b508094505050505090565b60008061111383612219565b9050600073ffffffffffffffffffffffffffffffffffffffff168173ffffffffffffffffffffffffffffffffffffffff1603611184576040517f08c379a000000000000000000000000000000000000000000000000000000000815260040161117b90613b93565b60405180910390fd5b80915050919050565b60008073ffffffffffffffffffffffffffffffffffffffff168273ffffffffffffffffffffffffffffffffffffffff16036111fd576040517f08c379a00000000000000000000000000000000000000000000000000000000081526004016111f490613c25565b60405180910390fd5b600360008373ffffffffffffffffffffffffffffffffffffffff1673ffffffffffffffffffffffffffffffffffffffff168152602001908152602001600020549050919050565b60006112506007612256565b600061125c6007611e7d565b9050611268338261226c565b6112728185612489565b61127c81846124f6565b8091505092915050565b60606001805461129590613852565b80601f01602080910402602001604051908101604052809291908181526020018280546112c190613852565b801561130e5780601f106112e35761010080835404028352916020019161130e565b820191906000526020600020905b8154815290600101906020018083116112f157829003601f168201915b5050505050905090565b61132a611323611dbc565b83836126f9565b5050565b600a60009054906101000a900473ffffffffffffffffffffffffffffffffffffffff1673ffffffffffffffffffffffffffffffffffffffff163373ffffffffffffffffffffffffffffffffffffffff16146113be576040517f08c379a00000000000000000000000000000000000000000000000000000000081526004016113b590613cb7565b60405180910390fd5b3373ffffffffffffffffffffffffffffffffffffffff16600a60009054906101000a900473ffffffffffffffffffffffffffffffffffffffff1673ffffffffffffffffffffffffffffffffffffffff161461144e576040517f08c379a000000000000000000000000000000000000000000000000000000000815260040161144590613d49565b60405180910390fd5b8060098190555050565b611469611463611dbc565b83611e8b565b6114a8576040517f08c379a000000000000000000000000000000000000000000000000000000000815260040161149f90613b27565b60405180910390fd5b6114b484848484612865565b50505050565b6000600b6000838152602001908152602001600020600301549050803414611517576040517f08c379a000000000000000000000000000000000000000000000000000000000815260040161150e90613ddb565b60405180910390fd5b33600b600084815260200190815260200160002060020160006101000a81548173ffffffffffffffffffffffffffffffffffffffff021916908373ffffffffffffffffffffffffffffffffffffffff1602179055506001600b600084815260200190815260200160002060040160006101000a81548160ff0219169083151502179055506000600b600084815260200190815260200160002060010160006101000a81548173ffffffffffffffffffffffffffffffffffffffff021916908373ffffffffffffffffffffffffffffffffffffffff1602179055506115fb6008612256565b611606303384611f20565b600a60009054906101000a900473ffffffffffffffffffffffffffffffffffffffff1673ffffffffffffffffffffffffffffffffffffffff166108fc6009549081150290604051600060405180830381858888f19350505050158015611670573d6000803e3d6000fd5b50600b600083815260200190815260200160002060010160009054906101000a900473ffffffffffffffffffffffffffffffffffffffff1673ffffffffffffffffffffffffffffffffffffffff166108fc349081150290604051600060405180830381858888f193505050501580156116ed573d6000803e3d6000fd5b507fcdd65032587b7af3648a7dd5a4e12dfed988b1ede0d00c8d5d32d098835bd4ad8260003360405161172293929190613dfb565b60405180910390a15050565b606061173982611d71565b600060066000848152602001908152602001600020805461175990613852565b80601f016020809104026020016040519081016040528092919081815260200182805461178590613852565b80156117d25780601f106117a7576101008083540402835291602001916117d2565b820191906000526020600020905b8154815290600101906020018083116117b557829003601f168201915b5050505050905060006117e36128c1565b905060008151036117f857819250505061183b565b60008251111561182d578082604051602001611815929190613e6e565b6040516020818303038152906040529250505061183b565b611836846128d8565b925050505b919050565b3373ffffffffffffffffffffffffffffffffffffffff16600b600084815260200190815260200160002060020160009054906101000a900473ffffffffffffffffffffffffffffffffffffffff1673ffffffffffffffffffffffffffffffffffffffff16146118e4576040517f08c379a00000000000000000000000000000000000000000000000000000000081526004016118db90613f04565b60405180910390fd5b6009543414611928576040517f08c379a000000000000000000000000000000000000000000000000000000000815260040161191f90613f96565b60405180910390fd5b6000600b600084815260200190815260200160002060040160006101000a81548160ff02191690831515021790555080600b60008481526020019081526020016000206003018190555033600b600084815260200190815260200160002060010160006101000a81548173ffffffffffffffffffffffffffffffffffffffff021916908373ffffffffffffffffffffffffffffffffffffffff16021790555030600b600084815260200190815260200160002060020160006101000a81548173ffffffffffffffffffffffffffffffffffffffff021916908373ffffffffffffffffffffffffffffffffffffffff160217905550611a266008612940565b611a31333084611f20565b7f4246c23d007fb94841a2d8e6822880a848862777c0656f1e701ac56f5079113e82333084604051611a669493929190613fb6565b60405180910390a15050565b6000600560008473ffffffffffffffffffffffffffffffffffffffff1673ffffffffffffffffffffffffffffffffffffffff16815260200190815260200160002060008373ffffffffffffffffffffffffffffffffffffffff1673ffffffffffffffffffffffffffffffffffffffff16815260200190815260200160002060009054906101000a900460ff16905092915050565b611b0e612ed4565b600b60008381526020019081526020016000206040518060a0016040529081600082015481526020016001820160009054906101000a900473ffffffffffffffffffffffffffffffffffffffff1673ffffffffffffffffffffffffffffffffffffffff1673ffffffffffffffffffffffffffffffffffffffff1681526020016002820160009054906101000a900473ffffffffffffffffffffffffffffffffffffffff1673ffffffffffffffffffffffffffffffffffffffff1673ffffffffffffffffffffffffffffffffffffffff168152602001600382015481526020016004820160009054906101000a900460ff1615151515815250509050919050565b600b600082815260200190815260200160002060020160009054906101000a900473ffffffffffffffffffffffffffffffffffffffff1673ffffffffffffffffffffffffffffffffffffffff163373ffffffffffffffffffffffffffffffffffffffff1614611c7c57600080fd5b600b60008281526020019081526020016000206000808201600090556001820160006101000a81549073ffffffffffffffffffffffffffffffffffffffff02191690556002820160006101000a81549073ffffffffffffffffffffffffffffffffffffffff021916905560038201600090556004820160006101000a81549060ff0219169055505050565b60007f01ffc9a7000000000000000000000000000000000000000000000000000000007bffffffffffffffffffffffffffffffffffffffffffffffffffffffff1916827bffffffffffffffffffffffffffffffffffffffffffffffffffffffff1916149050919050565b611d7a8161299c565b611db9576040517f08c379a0000000000000000000000000000000000000000000000000000000008152600401611db090613b93565b60405180910390fd5b50565b600033905090565b816004600083815260200190815260200160002060006101000a81548173ffffffffffffffffffffffffffffffffffffffff021916908373ffffffffffffffffffffffffffffffffffffffff160217905550808273ffffffffffffffffffffffffffffffffffffffff16611e3783611107565b73ffffffffffffffffffffffffffffffffffffffff167f8c5be1e5ebec7d5bd14f71427d1e84f3dd0314c0f7b2291e5b200ac8c7c3b92560405160405180910390a45050565b600081600001549050919050565b600080611e9783611107565b90508073ffffffffffffffffffffffffffffffffffffffff168473ffffffffffffffffffffffffffffffffffffffff161480611ed95750611ed88185611a72565b5b80611f1757508373ffffffffffffffffffffffffffffffffffffffff16611eff846106e0565b73ffffffffffffffffffffffffffffffffffffffff16145b91505092915050565b8273ffffffffffffffffffffffffffffffffffffffff16611f4082611107565b73ffffffffffffffffffffffffffffffffffffffff1614611f96576040517f08c379a0000000000000000000000000000000000000000000000000000000008152600401611f8d9061406d565b60405180910390fd5b600073ffffffffffffffffffffffffffffffffffffffff168273ffffffffffffffffffffffffffffffffffffffff1603612005576040517f08c379a0000000000000000000000000000000000000000000000000000000008152600401611ffc906140ff565b60405180910390fd5b61201283838360016129dd565b8273ffffffffffffffffffffffffffffffffffffffff1661203282611107565b73ffffffffffffffffffffffffffffffffffffffff1614612088576040517f08c379a000000000000000000000000000000000000000000000000000000000815260040161207f9061406d565b60405180910390fd5b6004600082815260200190815260200160002060006101000a81549073ffffffffffffffffffffffffffffffffffffffff02191690556001600360008573ffffffffffffffffffffffffffffffffffffffff1673ffffffffffffffffffffffffffffffffffffffff168152602001908152602001600020600082825403925050819055506001600360008473ffffffffffffffffffffffffffffffffffffffff1673ffffffffffffffffffffffffffffffffffffffff16815260200190815260200160002060008282540192505081905550816002600083815260200190815260200160002060006101000a81548173ffffffffffffffffffffffffffffffffffffffff021916908373ffffffffffffffffffffffffffffffffffffffff160217905550808273ffffffffffffffffffffffffffffffffffffffff168473ffffffffffffffffffffffffffffffffffffffff167fddf252ad1be2c89b69c2b068fc378daa952ba7f163c4a11628f55a4df523b3ef60405160405180910390a46122148383836001612b03565b505050565b60006002600083815260200190815260200160002060009054906101000a900473ffffffffffffffffffffffffffffffffffffffff169050919050565b6001816000016000828254019250508190555050565b600073ffffffffffffffffffffffffffffffffffffffff168273ffffffffffffffffffffffffffffffffffffffff16036122db576040517f08c379a00000000000000000000000000000000000000000000000000000000081526004016122d29061416b565b60405180910390fd5b6122e48161299c565b15612324576040517f08c379a000000000000000000000000000000000000000000000000000000000815260040161231b906141d7565b60405180910390fd5b6123326000838360016129dd565b61233b8161299c565b1561237b576040517f08c379a0000000000000000000000000000000000000000000000000000000008152600401612372906141d7565b60405180910390fd5b6001600360008473ffffffffffffffffffffffffffffffffffffffff1673ffffffffffffffffffffffffffffffffffffffff16815260200190815260200160002060008282540192505081905550816002600083815260200190815260200160002060006101000a81548173ffffffffffffffffffffffffffffffffffffffff021916908373ffffffffffffffffffffffffffffffffffffffff160217905550808273ffffffffffffffffffffffffffffffffffffffff16600073ffffffffffffffffffffffffffffffffffffffff167fddf252ad1be2c89b69c2b068fc378daa952ba7f163c4a11628f55a4df523b3ef60405160405180910390a4612485600083836001612b03565b5050565b6124928261299c565b6124d1576040517f08c379a00000000000000000000000000000000000000000000000000000000081526004016124c890614269565b60405180910390fd5b806006600084815260200190815260200160002090816124f19190614435565b505050565b60008111612539576040517f08c379a000000000000000000000000000000000000000000000000000000000815260040161253090614553565b60405180910390fd5b600954341461257d576040517f08c379a000000000000000000000000000000000000000000000000000000000815260040161257490613f96565b60405180910390fd5b6040518060a001604052808381526020013373ffffffffffffffffffffffffffffffffffffffff1681526020013073ffffffffffffffffffffffffffffffffffffffff16815260200182815260200160001515815250600b60008481526020019081526020016000206000820151816000015560208201518160010160006101000a81548173ffffffffffffffffffffffffffffffffffffffff021916908373ffffffffffffffffffffffffffffffffffffffff16021790555060408201518160020160006101000a81548173ffffffffffffffffffffffffffffffffffffffff021916908373ffffffffffffffffffffffffffffffffffffffff1602179055506060820151816003015560808201518160040160006101000a81548160ff0219169083151502179055509050506126b6333084611f20565b817fb640004f1d14576d0c209e240cad0410e0d8c0c33a09375861fbadae2588a98d33308460006040516126ed9493929190614573565b60405180910390a25050565b8173ffffffffffffffffffffffffffffffffffffffff168373ffffffffffffffffffffffffffffffffffffffff1603612767576040517f08c379a000000000000000000000000000000000000000000000000000000000815260040161275e90614604565b60405180910390fd5b80600560008573ffffffffffffffffffffffffffffffffffffffff1673ffffffffffffffffffffffffffffffffffffffff16815260200190815260200160002060008473ffffffffffffffffffffffffffffffffffffffff1673ffffffffffffffffffffffffffffffffffffffff16815260200190815260200160002060006101000a81548160ff0219169083151502179055508173ffffffffffffffffffffffffffffffffffffffff168373ffffffffffffffffffffffffffffffffffffffff167f17307eab39ab6107e8899845ad3d59bd9653f200f220920489ca2b5937696c31836040516128589190612fe5565b60405180910390a3505050565b612870848484611f20565b61287c84848484612b09565b6128bb576040517f08c379a00000000000000000000000000000000000000000000000000000000081526004016128b290614696565b60405180910390fd5b50505050565b606060405180602001604052806000815250905090565b60606128e382611d71565b60006128ed6128c1565b9050600081511161290d5760405180602001604052806000815250612938565b8061291784612c90565b604051602001612928929190613e6e565b6040516020818303038152906040525b915050919050565b6000816000015490506000811161298c576040517f08c379a000000000000000000000000000000000000000000000000000000000815260040161298390614702565b60405180910390fd5b6001810382600001819055505050565b60008073ffffffffffffffffffffffffffffffffffffffff166129be83612219565b73ffffffffffffffffffffffffffffffffffffffff1614159050919050565b6001811115612afd57600073ffffffffffffffffffffffffffffffffffffffff168473ffffffffffffffffffffffffffffffffffffffff1614612a715780600360008673ffffffffffffffffffffffffffffffffffffffff1673ffffffffffffffffffffffffffffffffffffffff1681526020019081526020016000206000828254612a6991906139d6565b925050819055505b600073ffffffffffffffffffffffffffffffffffffffff168373ffffffffffffffffffffffffffffffffffffffff1614612afc5780600360008573ffffffffffffffffffffffffffffffffffffffff1673ffffffffffffffffffffffffffffffffffffffff1681526020019081526020016000206000828254612af49190613a0a565b925050819055505b5b50505050565b50505050565b6000612b2a8473ffffffffffffffffffffffffffffffffffffffff16612d5e565b15612c83578373ffffffffffffffffffffffffffffffffffffffff1663150b7a02612b53611dbc565b8786866040518563ffffffff1660e01b8152600401612b759493929190614777565b6020604051808303816000875af1925050508015612bb157506040513d601f19601f82011682018060405250810190612bae91906147d8565b60015b612c33573d8060008114612be1576040519150601f19603f3d011682016040523d82523d6000602084013e612be6565b606091505b506000815103612c2b576040517f08c379a0000000000000000000000000000000000000000000000000000000008152600401612c2290614696565b60405180910390fd5b805181602001fd5b63150b7a0260e01b7bffffffffffffffffffffffffffffffffffffffffffffffffffffffff1916817bffffffffffffffffffffffffffffffffffffffffffffffffffffffff191614915050612c88565b600190505b949350505050565b606060006001612c9f84612d81565b01905060008167ffffffffffffffff811115612cbe57612cbd613409565b5b6040519080825280601f01601f191660200182016040528015612cf05781602001600182028036833780820191505090505b509050600082602001820190505b600115612d53578080600190039150507f3031323334353637383961626364656600000000000000000000000000000000600a86061a8153600a8581612d4757612d46614805565b5b04945060008503612cfe575b819350505050919050565b6000808273ffffffffffffffffffffffffffffffffffffffff163b119050919050565b600080600090507a184f03e93ff9f4daa797ed6e38ed64bf6a1f0100000000000000008310612ddf577a184f03e93ff9f4daa797ed6e38ed64bf6a1f0100000000000000008381612dd557612dd4614805565b5b0492506040810190505b6d04ee2d6d415b85acef81000000008310612e1c576d04ee2d6d415b85acef81000000008381612e1257612e11614805565b5b0492506020810190505b662386f26fc100008310612e4b57662386f26fc100008381612e4157612e40614805565b5b0492506010810190505b6305f5e1008310612e74576305f5e1008381612e6a57612e69614805565b5b0492506008810190505b6127108310612e99576127108381612e8f57612e8e614805565b5b0492506004810190505b60648310612ebc5760648381612eb257612eb1614805565b5b0492506002810190505b600a8310612ecb576001810190505b80915050919050565b6040518060a0016040528060008152602001600073ffffffffffffffffffffffffffffffffffffffff168152602001600073ffffffffffffffffffffffffffffffffffffffff168152602001600081526020016000151581525090565b6000604051905090565b600080fd5b600080fd5b60007fffffffff0000000000000000000000000000000000000000000000000000000082169050919050565b612f7a81612f45565b8114612f8557600080fd5b50565b600081359050612f9781612f71565b92915050565b600060208284031215612fb357612fb2612f3b565b5b6000612fc184828501612f88565b91505092915050565b60008115159050919050565b612fdf81612fca565b82525050565b6000602082019050612ffa6000830184612fd6565b92915050565b600081519050919050565b600082825260208201905092915050565b60005b8381101561303a57808201518184015260208101905061301f565b60008484015250505050565b6000601f19601f8301169050919050565b600061306282613000565b61306c818561300b565b935061307c81856020860161301c565b61308581613046565b840191505092915050565b600060208201905081810360008301526130aa8184613057565b905092915050565b6000819050919050565b6130c5816130b2565b81146130d057600080fd5b50565b6000813590506130e2816130bc565b92915050565b6000602082840312156130fe576130fd612f3b565b5b600061310c848285016130d3565b91505092915050565b600073ffffffffffffffffffffffffffffffffffffffff82169050919050565b600061314082613115565b9050919050565b61315081613135565b82525050565b600060208201905061316b6000830184613147565b92915050565b61317a81613135565b811461318557600080fd5b50565b60008135905061319781613171565b92915050565b600080604083850312156131b4576131b3612f3b565b5b60006131c285828601613188565b92505060206131d3858286016130d3565b9150509250929050565b600081519050919050565b600082825260208201905092915050565b6000819050602082019050919050565b613212816130b2565b82525050565b600061322382613115565b9050919050565b61323381613218565b82525050565b61324281612fca565b82525050565b60a08201600082015161325e6000850182613209565b506020820151613271602085018261322a565b506040820151613284604085018261322a565b5060608201516132976060850182613209565b5060808201516132aa6080850182613239565b50505050565b60006132bc8383613248565b60a08301905092915050565b6000602082019050919050565b60006132e0826131dd565b6132ea81856131e8565b93506132f5836131f9565b8060005b8381101561332657815161330d88826132b0565b9750613318836132c8565b9250506001810190506132f9565b5085935050505092915050565b6000602082019050818103600083015261334d81846132d5565b905092915050565b61335e816130b2565b82525050565b60006020820190506133796000830184613355565b92915050565b60008060006060848603121561339857613397612f3b565b5b60006133a686828701613188565b93505060206133b786828701613188565b92505060406133c8868287016130d3565b9150509250925092565b6000602082840312156133e8576133e7612f3b565b5b60006133f684828501613188565b91505092915050565b600080fd5b600080fd5b7f4e487b7100000000000000000000000000000000000000000000000000000000600052604160045260246000fd5b61344182613046565b810181811067ffffffffffffffff821117156134605761345f613409565b5b80604052505050565b6000613473612f31565b905061347f8282613438565b919050565b600067ffffffffffffffff82111561349f5761349e613409565b5b6134a882613046565b9050602081019050919050565b82818337600083830152505050565b60006134d76134d284613484565b613469565b9050828152602081018484840111156134f3576134f2613404565b5b6134fe8482856134b5565b509392505050565b600082601f83011261351b5761351a6133ff565b5b813561352b8482602086016134c4565b91505092915050565b6000806040838503121561354b5761354a612f3b565b5b600083013567ffffffffffffffff81111561356957613568612f40565b5b61357585828601613506565b9250506020613586858286016130d3565b9150509250929050565b61359981612fca565b81146135a457600080fd5b50565b6000813590506135b681613590565b92915050565b600080604083850312156135d3576135d2612f3b565b5b60006135e185828601613188565b92505060206135f2858286016135a7565b9150509250929050565b600067ffffffffffffffff82111561361757613616613409565b5b61362082613046565b9050602081019050919050565b600061364061363b846135fc565b613469565b90508281526020810184848401111561365c5761365b613404565b5b6136678482856134b5565b509392505050565b600082601f830112613684576136836133ff565b5b813561369484826020860161362d565b91505092915050565b600080600080608085870312156136b7576136b6612f3b565b5b60006136c587828801613188565b94505060206136d687828801613188565b93505060406136e7878288016130d3565b925050606085013567ffffffffffffffff81111561370857613707612f40565b5b6137148782880161366f565b91505092959194509250565b6000806040838503121561373757613736612f3b565b5b6000613745858286016130d3565b9250506020613756858286016130d3565b9150509250929050565b6000806040838503121561377757613776612f3b565b5b600061378585828601613188565b925050602061379685828601613188565b9150509250929050565b60a0820160008201516137b66000850182613209565b5060208201516137c9602085018261322a565b5060408201516137dc604085018261322a565b5060608201516137ef6060850182613209565b5060808201516138026080850182613239565b50505050565b600060a08201905061381d60008301846137a0565b92915050565b7f4e487b7100000000000000000000000000000000000000000000000000000000600052602260045260246000fd5b6000600282049050600182168061386a57607f821691505b60208210810361387d5761387c613823565b5b50919050565b7f4552433732313a20617070726f76616c20746f2063757272656e74206f776e6560008201527f7200000000000000000000000000000000000000000000000000000000000000602082015250565b60006138df60218361300b565b91506138ea82613883565b604082019050919050565b6000602082019050818103600083015261390e816138d2565b9050919050565b7f4552433732313a20617070726f76652063616c6c6572206973206e6f7420746f60008201527f6b656e206f776e6572206f7220617070726f76656420666f7220616c6c000000602082015250565b6000613971603d8361300b565b915061397c82613915565b604082019050919050565b600060208201905081810360008301526139a081613964565b9050919050565b7f4e487b7100000000000000000000000000000000000000000000000000000000600052601160045260246000fd5b60006139e1826130b2565b91506139ec836130b2565b9250828203905081811115613a0457613a036139a7565b5b92915050565b6000613a15826130b2565b9150613a20836130b2565b9250828201905080821115613a3857613a376139a7565b5b92915050565b7f4e487b7100000000000000000000000000000000000000000000000000000000600052603260045260246000fd5b6000613a78826130b2565b91507fffffffffffffffffffffffffffffffffffffffffffffffffffffffffffffffff8203613aaa57613aa96139a7565b5b600182019050919050565b7f4552433732313a2063616c6c6572206973206e6f7420746f6b656e206f776e6560008201527f72206f7220617070726f76656400000000000000000000000000000000000000602082015250565b6000613b11602d8361300b565b9150613b1c82613ab5565b604082019050919050565b60006020820190508181036000830152613b4081613b04565b9050919050565b7f4552433732313a20696e76616c696420746f6b656e2049440000000000000000600082015250565b6000613b7d60188361300b565b9150613b8882613b47565b602082019050919050565b60006020820190508181036000830152613bac81613b70565b9050919050565b7f4552433732313a2061646472657373207a65726f206973206e6f74206120766160008201527f6c6964206f776e65720000000000000000000000000000000000000000000000602082015250565b6000613c0f60298361300b565b9150613c1a82613bb3565b604082019050919050565b60006020820190508181036000830152613c3e81613c02565b9050919050565b7f6f6e6c79206f776e6572206f6620746865206d61726b6574706c61636520636160008201527f6e206368616e676520746865206c697374696e67207072696365000000000000602082015250565b6000613ca1603a8361300b565b9150613cac82613c45565b604082019050919050565b60006020820190508181036000830152613cd081613c94565b9050919050565b7f4f6e6c79206d61726b6574706c616365206f776e65722063616e20757064617460008201527f65206c697374696e672070726963652e00000000000000000000000000000000602082015250565b6000613d3360308361300b565b9150613d3e82613cd7565b604082019050919050565b60006020820190508181036000830152613d6281613d26565b9050919050565b7f506c65617365207375626d6974207468652061736b696e67207072696365206960008201527f6e206f7264657220746f20636f6d706c65746520746865207075726368617365602082015250565b6000613dc560408361300b565b9150613dd082613d69565b604082019050919050565b60006020820190508181036000830152613df481613db8565b9050919050565b6000606082019050613e106000830186613355565b613e1d6020830185613147565b613e2a6040830184613147565b949350505050565b600081905092915050565b6000613e4882613000565b613e528185613e32565b9350613e6281856020860161301c565b80840191505092915050565b6000613e7a8285613e3d565b9150613e868284613e3d565b91508190509392505050565b7f4f6e6c79206974656d206f776e65722063616e20706572666f726d207468697360008201527f206f7065726174696f6e00000000000000000000000000000000000000000000602082015250565b6000613eee602a8361300b565b9150613ef982613e92565b604082019050919050565b60006020820190508181036000830152613f1d81613ee1565b9050919050565b7f5072696365206d75737420626520657175616c20746f206c697374696e67207060008201527f7269636500000000000000000000000000000000000000000000000000000000602082015250565b6000613f8060248361300b565b9150613f8b82613f24565b604082019050919050565b60006020820190508181036000830152613faf81613f73565b9050919050565b6000608082019050613fcb6000830187613355565b613fd86020830186613147565b613fe56040830185613147565b613ff26060830184613355565b95945050505050565b7f4552433732313a207472616e736665722066726f6d20696e636f72726563742060008201527f6f776e6572000000000000000000000000000000000000000000000000000000602082015250565b600061405760258361300b565b915061406282613ffb565b604082019050919050565b600060208201905081810360008301526140868161404a565b9050919050565b7f4552433732313a207472616e7366657220746f20746865207a65726f2061646460008201527f7265737300000000000000000000000000000000000000000000000000000000602082015250565b60006140e960248361300b565b91506140f48261408d565b604082019050919050565b60006020820190508181036000830152614118816140dc565b9050919050565b7f4552433732313a206d696e7420746f20746865207a65726f2061646472657373600082015250565b600061415560208361300b565b91506141608261411f565b602082019050919050565b6000602082019050818103600083015261418481614148565b9050919050565b7f4552433732313a20746f6b656e20616c7265616479206d696e74656400000000600082015250565b60006141c1601c8361300b565b91506141cc8261418b565b602082019050919050565b600060208201905081810360008301526141f0816141b4565b9050919050565b7f45524337323155524953746f726167653a2055524920736574206f66206e6f6e60008201527f6578697374656e7420746f6b656e000000000000000000000000000000000000602082015250565b6000614253602e8361300b565b915061425e826141f7565b604082019050919050565b6000602082019050818103600083015261428281614246565b9050919050565b60008190508160005260206000209050919050565b60006020601f8301049050919050565b600082821b905092915050565b6000600883026142eb7fffffffffffffffffffffffffffffffffffffffffffffffffffffffffffffffff826142ae565b6142f586836142ae565b95508019841693508086168417925050509392505050565b6000819050919050565b600061433261432d614328846130b2565b61430d565b6130b2565b9050919050565b6000819050919050565b61434c83614317565b61436061435882614339565b8484546142bb565b825550505050565b600090565b614375614368565b614380818484614343565b505050565b5b818110156143a45761439960008261436d565b600181019050614386565b5050565b601f8211156143e9576143ba81614289565b6143c38461429e565b810160208510156143d2578190505b6143e66143de8561429e565b830182614385565b50505b505050565b600082821c905092915050565b600061440c600019846008026143ee565b1980831691505092915050565b600061442583836143fb565b9150826002028217905092915050565b61443e82613000565b67ffffffffffffffff81111561445757614456613409565b5b6144618254613852565b61446c8282856143a8565b600060209050601f83116001811461449f576000841561448d578287015190505b6144978582614419565b8655506144ff565b601f1984166144ad86614289565b60005b828110156144d5578489015182556001820191506020850194506020810190506144b0565b868310156144f257848901516144ee601f8916826143fb565b8355505b6001600288020188555050505b505050505050565b7f5072696365206d757374206265206174206c6561737420312077656900000000600082015250565b600061453d601c8361300b565b915061454882614507565b602082019050919050565b6000602082019050818103600083015261456c81614530565b9050919050565b60006080820190506145886000830187613147565b6145956020830186613147565b6145a26040830185613355565b6145af6060830184612fd6565b95945050505050565b7f4552433732313a20617070726f766520746f2063616c6c657200000000000000600082015250565b60006145ee60198361300b565b91506145f9826145b8565b602082019050919050565b6000602082019050818103600083015261461d816145e1565b9050919050565b7f4552433732313a207472616e7366657220746f206e6f6e20455243373231526560008201527f63656976657220696d706c656d656e7465720000000000000000000000000000602082015250565b600061468060328361300b565b915061468b82614624565b604082019050919050565b600060208201905081810360008301526146af81614673565b9050919050565b7f436f756e7465723a2064656372656d656e74206f766572666c6f770000000000600082015250565b60006146ec601b8361300b565b91506146f7826146b6565b602082019050919050565b6000602082019050818103600083015261471b816146df565b9050919050565b600081519050919050565b600082825260208201905092915050565b600061474982614722565b614753818561472d565b935061476381856020860161301c565b61476c81613046565b840191505092915050565b600060808201905061478c6000830187613147565b6147996020830186613147565b6147a66040830185613355565b81810360608301526147b8818461473e565b905095945050505050565b6000815190506147d281612f71565b92915050565b6000602082840312156147ee576147ed612f3b565b5b60006147fc848285016147c3565b91505092915050565b7f4e487b7100000000000000000000000000000000000000000000000000000000600052601260045260246000fdfea2646970667358221220d1e318b7bc26627d8c610ef882e4a0c21eee023e9cde6a8d4dfb46cc063a82b664736f6c63430008120033",
  "immutableReferences": {},
  "source": "// SPDX-License-Identifier: MIT\r\npragma solidity ^0.8.4;\r\n\r\nimport \"@openzeppelin/contracts/utils/Counters.sol\";\r\nimport \"@openzeppelin/contracts/token/ERC721/extensions/ERC721URIStorage.sol\";\r\nimport \"@openzeppelin/contracts/token/ERC721/ERC721.sol\";\r\n\r\n\r\ncontract NFTMarketplace is ERC721URIStorage {\r\n    using Counters for Counters.Counter;\r\n    Counters.Counter private _tokenIds;\r\n    Counters.Counter private _itemsSold;\r\n\r\n    uint256 listingPrice = 0.025 ether;\r\n    address payable owner;\r\n\r\n    mapping(uint256 => MarketItem) private idToMarketItem;\r\n\r\n    struct MarketItem {\r\n        uint256 tokenId;\r\n        address payable seller;\r\n        address payable owner;\r\n        uint256 price;\r\n        bool sold;\r\n    }\r\n\r\n    event MarketItemCreated(\r\n        uint256 indexed tokenId,\r\n        address seller,\r\n        address owner,\r\n        uint256 price,\r\n        bool sold\r\n    );\r\n\r\n    event buyEvent(\r\n        uint256 tokenId,\r\n        address seller,\r\n        address owner\r\n    );\r\n\r\n    event resellEvent(\r\n        uint256 tokenId,\r\n        address seller,\r\n        address owner,\r\n        uint256 price\r\n    );\r\n\r\n    modifier onlyOwner() {\r\n        require(\r\n            msg.sender == owner,\r\n            \"only owner of the marketplace can change the listing price\"\r\n        );\r\n        _;\r\n    }\r\n\r\n    constructor() ERC721(\"Metaverse Tokens\", \"METT\") {\r\n        owner = payable(msg.sender);\r\n    }\r\n\r\n    /* Updates the listing price of the contract */\r\n    function updateListingPrice(uint256 _listingPrice)\r\n        public\r\n        payable\r\n        onlyOwner\r\n    {\r\n        require(\r\n            owner == msg.sender,\r\n            \"Only marketplace owner can update listing price.\"\r\n        );\r\n        listingPrice = _listingPrice;\r\n    }\r\n\r\n    /* Returns the listing price of the contract */\r\n    function getListingPrice() public view returns (uint256) {\r\n        return listingPrice;\r\n    }\r\n\r\n    /* Mints a token and lists it in the marketplace */\r\n    function createToken(string memory tokenURI, uint256 price)\r\n        public\r\n        payable\r\n        returns (uint256)\r\n    {\r\n        _tokenIds.increment();\r\n        uint256 newTokenId = _tokenIds.current();\r\n\r\n        _mint(msg.sender, newTokenId);\r\n        _setTokenURI(newTokenId, tokenURI);\r\n        createMarketItem(newTokenId, price);\r\n        return newTokenId;\r\n    }\r\n\r\n    function deleteNft(uint256 tokenId) public {\r\n        require(msg.sender == idToMarketItem[tokenId].owner);\r\n        delete idToMarketItem[tokenId];\r\n    }\r\n\r\n    function createMarketItem(uint256 tokenId, uint256 price) private {\r\n        require(price > 0, \"Price must be at least 1 wei\");\r\n        require(\r\n            msg.value == listingPrice,\r\n            \"Price must be equal to listing price\"\r\n        );\r\n\r\n        idToMarketItem[tokenId] = MarketItem(\r\n            tokenId,\r\n            payable(msg.sender),\r\n            payable(address(this)),\r\n            price,\r\n            false\r\n        );\r\n\r\n        _transfer(msg.sender, address(this), tokenId);\r\n        emit MarketItemCreated(\r\n            tokenId,\r\n            msg.sender,\r\n            address(this),\r\n            price,\r\n            false\r\n        );\r\n    }\r\n\r\n    /* allows someone to resell a token they have purchased */\r\n    function resellToken(uint256 tokenId, uint256 price) public payable {\r\n        require(\r\n            idToMarketItem[tokenId].owner == msg.sender,\r\n            \"Only item owner can perform this operation\"\r\n        );\r\n        require(\r\n            msg.value == listingPrice,\r\n            \"Price must be equal to listing price\"\r\n        );\r\n        idToMarketItem[tokenId].sold = false;\r\n        idToMarketItem[tokenId].price = price;\r\n        idToMarketItem[tokenId].seller = payable(msg.sender);\r\n        idToMarketItem[tokenId].owner = payable(address(this));\r\n        _itemsSold.decrement();\r\n\r\n        _transfer(msg.sender, address(this), tokenId);\r\n        emit resellEvent(tokenId,msg.sender, address(this), price);\r\n    }\r\n\r\n    /* Creates the sale of a marketplace item */\r\n    /* Transfers ownership of the item, as well as funds between parties */\r\n    function createMarketSale(uint256 tokenId) public payable {\r\n        uint256 price = idToMarketItem[tokenId].price;\r\n        require(\r\n            msg.value == price,\r\n            \"Please submit the asking price in order to complete the purchase\"\r\n        );\r\n        idToMarketItem[tokenId].owner = payable(msg.sender);\r\n        idToMarketItem[tokenId].sold = true;\r\n        idToMarketItem[tokenId].seller = payable(address(0));\r\n        _itemsSold.increment();\r\n        _transfer(address(this), msg.sender, tokenId);\r\n        payable(owner).transfer(listingPrice);\r\n        payable(idToMarketItem[tokenId].seller).transfer(msg.value);\r\n\r\n        emit buyEvent(tokenId,address(0),msg.sender);\r\n    }\r\n\r\n    /* Returns all unsold market items */\r\n    function fetchMarketItems() public view returns (MarketItem[] memory) {\r\n        uint256 itemCount = _tokenIds.current();\r\n        uint256 unsoldItemCount = _tokenIds.current() - _itemsSold.current();\r\n        uint256 currentIndex = 0;\r\n\r\n        MarketItem[] memory items = new MarketItem[](unsoldItemCount);\r\n        for (uint256 i = 0; i < itemCount; i++) {\r\n            if (idToMarketItem[i + 1].owner == address(this)) {\r\n                uint256 currentId = i + 1;\r\n                MarketItem memory currentItem = idToMarketItem[currentId];\r\n                items[currentIndex] = currentItem;\r\n                currentIndex += 1;\r\n            }\r\n        }\r\n        return items;\r\n    }\r\n\r\n    /* Returns only items that a user has purchased */\r\n    function fetchMyNFTs() public view returns (MarketItem[] memory) {\r\n        uint256 totalItemCount = _tokenIds.current();\r\n        uint256 itemCount = 0;\r\n        uint256 currentIndex = 0;\r\n\r\n        for (uint256 i = 0; i < totalItemCount; i++) {\r\n            if (idToMarketItem[i + 1].owner == msg.sender) {\r\n                itemCount += 1;\r\n            }\r\n        }\r\n\r\n        MarketItem[] memory items = new MarketItem[](itemCount);\r\n        for (uint256 i = 0; i < totalItemCount; i++) {\r\n            if (idToMarketItem[i + 1].owner == msg.sender) {\r\n                uint256 currentId = i + 1;\r\n                MarketItem memory currentItem = idToMarketItem[currentId];\r\n                items[currentIndex] = currentItem;\r\n                currentIndex += 1;\r\n            }\r\n        }\r\n        return items;\r\n    }\r\n\r\n    function fetchSingleNft(uint256 tokenId) public view returns( MarketItem memory) {\r\n        return idToMarketItem[tokenId];\r\n    }\r\n\r\n    /* Returns only items a user has listed */\r\n    function fetchItemsListed() public view returns (MarketItem[] memory) {\r\n        uint256 totalItemCount = _tokenIds.current();\r\n        uint256 itemCount = 0;\r\n        uint256 currentIndex = 0;\r\n\r\n        for (uint256 i = 0; i < totalItemCount; i++) {\r\n            if (idToMarketItem[i + 1].seller == msg.sender) {\r\n                itemCount += 1;\r\n            }\r\n        }\r\n\r\n        MarketItem[] memory items = new MarketItem[](itemCount);\r\n        for (uint256 i = 0; i < totalItemCount; i++) {\r\n            if (idToMarketItem[i + 1].seller == msg.sender) {\r\n                uint256 currentId = i + 1;\r\n                MarketItem memory currentItem = idToMarketItem[currentId];\r\n                items[currentIndex] = currentItem;\r\n                currentIndex += 1;\r\n            }\r\n        }\r\n        return items;\r\n    }\r\n}",
  "sourcePath": "D:\\Lucent Training Modules\\solidity\\projects\\nft-project\\Nft-marketplace\\frontend\\src\\smartcontract\\contracts\\NFTMarketplace.sol",
  "compiler": {
    "name": "solc",
    "version": "0.8.18+commit.87f61d96.Emscripten.clang"
  },
  "schemaVersion": "3.4.11",
  "updatedAt": "2023-02-20T11:12:14.526Z",
  "networkType": "ethereum",
  "devdoc": {
    "events": {
      "Approval(address,address,uint256)": {
        "details": "Emitted when `owner` enables `approved` to manage the `tokenId` token."
      },
      "ApprovalForAll(address,address,bool)": {
        "details": "Emitted when `owner` enables or disables (`approved`) `operator` to manage all of its assets."
      },
      "Transfer(address,address,uint256)": {
        "details": "Emitted when `tokenId` token is transferred from `from` to `to`."
      }
    },
    "kind": "dev",
    "methods": {
      "approve(address,uint256)": {
        "details": "See {IERC721-approve}."
      },
      "balanceOf(address)": {
        "details": "See {IERC721-balanceOf}."
      },
      "getApproved(uint256)": {
        "details": "See {IERC721-getApproved}."
      },
      "isApprovedForAll(address,address)": {
        "details": "See {IERC721-isApprovedForAll}."
      },
      "name()": {
        "details": "See {IERC721Metadata-name}."
      },
      "ownerOf(uint256)": {
        "details": "See {IERC721-ownerOf}."
      },
      "safeTransferFrom(address,address,uint256)": {
        "details": "See {IERC721-safeTransferFrom}."
      },
      "safeTransferFrom(address,address,uint256,bytes)": {
        "details": "See {IERC721-safeTransferFrom}."
      },
      "setApprovalForAll(address,bool)": {
        "details": "See {IERC721-setApprovalForAll}."
      },
      "supportsInterface(bytes4)": {
        "details": "See {IERC165-supportsInterface}."
      },
      "symbol()": {
        "details": "See {IERC721Metadata-symbol}."
      },
      "tokenURI(uint256)": {
        "details": "See {IERC721Metadata-tokenURI}."
      },
      "transferFrom(address,address,uint256)": {
        "details": "See {IERC721-transferFrom}."
      }
    },
    "version": 1
  },
  "userdoc": {
    "kind": "user",
    "methods": {},
    "version": 1
  }
}