{
  "contractName": "NFTMarketplace",
  "abi": [
    {
      "inputs": [],
      "stateMutability": "nonpayable",
      "type": "constructor"
    },
    {
      "anonymous": false,
      "inputs": [
        {
          "indexed": true,
          "internalType": "address",
          "name": "owner",
          "type": "address"
        },
        {
          "indexed": true,
          "internalType": "address",
          "name": "approved",
          "type": "address"
        },
        {
          "indexed": true,
          "internalType": "uint256",
          "name": "tokenId",
          "type": "uint256"
        }
      ],
      "name": "Approval",
      "type": "event"
    },
    {
      "anonymous": false,
      "inputs": [
        {
          "indexed": true,
          "internalType": "address",
          "name": "owner",
          "type": "address"
        },
        {
          "indexed": true,
          "internalType": "address",
          "name": "operator",
          "type": "address"
        },
        {
          "indexed": false,
          "internalType": "bool",
          "name": "approved",
          "type": "bool"
        }
      ],
      "name": "ApprovalForAll",
      "type": "event"
    },
    {
      "anonymous": false,
      "inputs": [
        {
          "indexed": true,
          "internalType": "uint256",
          "name": "tokenId",
          "type": "uint256"
        },
        {
          "indexed": false,
          "internalType": "address",
          "name": "seller",
          "type": "address"
        },
        {
          "indexed": false,
          "internalType": "address",
          "name": "owner",
          "type": "address"
        },
        {
          "indexed": false,
          "internalType": "uint256",
          "name": "price",
          "type": "uint256"
        },
        {
          "indexed": false,
          "internalType": "bool",
          "name": "sold",
          "type": "bool"
        }
      ],
      "name": "MarketItemCreated",
      "type": "event"
    },
    {
      "anonymous": false,
      "inputs": [
        {
          "indexed": true,
          "internalType": "address",
          "name": "from",
          "type": "address"
        },
        {
          "indexed": true,
          "internalType": "address",
          "name": "to",
          "type": "address"
        },
        {
          "indexed": true,
          "internalType": "uint256",
          "name": "tokenId",
          "type": "uint256"
        }
      ],
      "name": "Transfer",
      "type": "event"
    },
    {
      "anonymous": false,
      "inputs": [
        {
          "indexed": false,
          "internalType": "uint256",
          "name": "tokenId",
          "type": "uint256"
        },
        {
          "indexed": false,
          "internalType": "address",
          "name": "seller",
          "type": "address"
        },
        {
          "indexed": false,
          "internalType": "address",
          "name": "owner",
          "type": "address"
        }
      ],
      "name": "buyEvent",
      "type": "event"
    },
    {
      "anonymous": false,
      "inputs": [
        {
          "indexed": false,
          "internalType": "uint256",
          "name": "tokenId",
          "type": "uint256"
        },
        {
          "indexed": false,
          "internalType": "address",
          "name": "seller",
          "type": "address"
        },
        {
          "indexed": false,
          "internalType": "address",
          "name": "owner",
          "type": "address"
        },
        {
          "indexed": false,
          "internalType": "uint256",
          "name": "price",
          "type": "uint256"
        }
      ],
      "name": "resellEvent",
      "type": "event"
    },
    {
      "inputs": [
        {
          "internalType": "address",
          "name": "to",
          "type": "address"
        },
        {
          "internalType": "uint256",
          "name": "tokenId",
          "type": "uint256"
        }
      ],
      "name": "approve",
      "outputs": [],
      "stateMutability": "nonpayable",
      "type": "function"
    },
    {
      "inputs": [
        {
          "internalType": "address",
          "name": "owner",
          "type": "address"
        }
      ],
      "name": "balanceOf",
      "outputs": [
        {
          "internalType": "uint256",
          "name": "",
          "type": "uint256"
        }
      ],
      "stateMutability": "view",
      "type": "function",
      "constant": true
    },
    {
      "inputs": [
        {
          "internalType": "uint256",
          "name": "tokenId",
          "type": "uint256"
        }
      ],
      "name": "getApproved",
      "outputs": [
        {
          "internalType": "address",
          "name": "",
          "type": "address"
        }
      ],
      "stateMutability": "view",
      "type": "function",
      "constant": true
    },
    {
      "inputs": [
        {
          "internalType": "address",
          "name": "owner",
          "type": "address"
        },
        {
          "internalType": "address",
          "name": "operator",
          "type": "address"
        }
      ],
      "name": "isApprovedForAll",
      "outputs": [
        {
          "internalType": "bool",
          "name": "",
          "type": "bool"
        }
      ],
      "stateMutability": "view",
      "type": "function",
      "constant": true
    },
    {
      "inputs": [],
      "name": "name",
      "outputs": [
        {
          "internalType": "string",
          "name": "",
          "type": "string"
        }
      ],
      "stateMutability": "view",
      "type": "function",
      "constant": true
    },
    {
      "inputs": [
        {
          "internalType": "uint256",
          "name": "tokenId",
          "type": "uint256"
        }
      ],
      "name": "ownerOf",
      "outputs": [
        {
          "internalType": "address",
          "name": "",
          "type": "address"
        }
      ],
      "stateMutability": "view",
      "type": "function",
      "constant": true
    },
    {
      "inputs": [
        {
          "internalType": "address",
          "name": "from",
          "type": "address"
        },
        {
          "internalType": "address",
          "name": "to",
          "type": "address"
        },
        {
          "internalType": "uint256",
          "name": "tokenId",
          "type": "uint256"
        }
      ],
      "name": "safeTransferFrom",
      "outputs": [],
      "stateMutability": "nonpayable",
      "type": "function"
    },
    {
      "inputs": [
        {
          "internalType": "address",
          "name": "from",
          "type": "address"
        },
        {
          "internalType": "address",
          "name": "to",
          "type": "address"
        },
        {
          "internalType": "uint256",
          "name": "tokenId",
          "type": "uint256"
        },
        {
          "internalType": "bytes",
          "name": "data",
          "type": "bytes"
        }
      ],
      "name": "safeTransferFrom",
      "outputs": [],
      "stateMutability": "nonpayable",
      "type": "function"
    },
    {
      "inputs": [
        {
          "internalType": "address",
          "name": "operator",
          "type": "address"
        },
        {
          "internalType": "bool",
          "name": "approved",
          "type": "bool"
        }
      ],
      "name": "setApprovalForAll",
      "outputs": [],
      "stateMutability": "nonpayable",
      "type": "function"
    },
    {
      "inputs": [
        {
          "internalType": "bytes4",
          "name": "interfaceId",
          "type": "bytes4"
        }
      ],
      "name": "supportsInterface",
      "outputs": [
        {
          "internalType": "bool",
          "name": "",
          "type": "bool"
        }
      ],
      "stateMutability": "view",
      "type": "function",
      "constant": true
    },
    {
      "inputs": [],
      "name": "symbol",
      "outputs": [
        {
          "internalType": "string",
          "name": "",
          "type": "string"
        }
      ],
      "stateMutability": "view",
      "type": "function",
      "constant": true
    },
    {
      "inputs": [
        {
          "internalType": "uint256",
          "name": "tokenId",
          "type": "uint256"
        }
      ],
      "name": "tokenURI",
      "outputs": [
        {
          "internalType": "string",
          "name": "",
          "type": "string"
        }
      ],
      "stateMutability": "view",
      "type": "function",
      "constant": true
    },
    {
      "inputs": [
        {
          "internalType": "address",
          "name": "from",
          "type": "address"
        },
        {
          "internalType": "address",
          "name": "to",
          "type": "address"
        },
        {
          "internalType": "uint256",
          "name": "tokenId",
          "type": "uint256"
        }
      ],
      "name": "transferFrom",
      "outputs": [],
      "stateMutability": "nonpayable",
      "type": "function"
    },
    {
      "inputs": [
        {
          "internalType": "uint256",
          "name": "_listingPrice",
          "type": "uint256"
        }
      ],
      "name": "updateListingPrice",
      "outputs": [],
      "stateMutability": "payable",
      "type": "function",
      "payable": true
    },
    {
      "inputs": [],
      "name": "getListingPrice",
      "outputs": [
        {
          "internalType": "uint256",
          "name": "",
          "type": "uint256"
        }
      ],
      "stateMutability": "view",
      "type": "function",
      "constant": true
    },
    {
      "inputs": [
        {
          "internalType": "string",
          "name": "tokenURI",
          "type": "string"
        },
        {
          "internalType": "uint256",
          "name": "price",
          "type": "uint256"
        }
      ],
      "name": "createToken",
      "outputs": [
        {
          "internalType": "uint256",
          "name": "",
          "type": "uint256"
        }
      ],
      "stateMutability": "payable",
      "type": "function",
      "payable": true
    },
    {
      "inputs": [
        {
          "internalType": "uint256",
          "name": "tokenId",
          "type": "uint256"
        },
        {
          "internalType": "uint256",
          "name": "price",
          "type": "uint256"
        }
      ],
      "name": "resellToken",
      "outputs": [],
      "stateMutability": "payable",
      "type": "function",
      "payable": true
    },
    {
      "inputs": [
        {
          "internalType": "uint256",
          "name": "tokenId",
          "type": "uint256"
        }
      ],
      "name": "createMarketSale",
      "outputs": [],
      "stateMutability": "payable",
      "type": "function",
      "payable": true
    },
    {
      "inputs": [],
      "name": "fetchMarketItems",
      "outputs": [
        {
          "components": [
            {
              "internalType": "uint256",
              "name": "tokenId",
              "type": "uint256"
            },
            {
              "internalType": "address payable",
              "name": "seller",
              "type": "address"
            },
            {
              "internalType": "address payable",
              "name": "owner",
              "type": "address"
            },
            {
              "internalType": "uint256",
              "name": "price",
              "type": "uint256"
            },
            {
              "internalType": "bool",
              "name": "sold",
              "type": "bool"
            }
          ],
          "internalType": "struct NFTMarketplace.MarketItem[]",
          "name": "",
          "type": "tuple[]"
        }
      ],
      "stateMutability": "view",
      "type": "function",
      "constant": true
    },
    {
      "inputs": [],
      "name": "fetchMyNFTs",
      "outputs": [
        {
          "components": [
            {
              "internalType": "uint256",
              "name": "tokenId",
              "type": "uint256"
            },
            {
              "internalType": "address payable",
              "name": "seller",
              "type": "address"
            },
            {
              "internalType": "address payable",
              "name": "owner",
              "type": "address"
            },
            {
              "internalType": "uint256",
              "name": "price",
              "type": "uint256"
            },
            {
              "internalType": "bool",
              "name": "sold",
              "type": "bool"
            }
          ],
          "internalType": "struct NFTMarketplace.MarketItem[]",
          "name": "",
          "type": "tuple[]"
        }
      ],
      "stateMutability": "view",
      "type": "function",
      "constant": true
    },
    {
      "inputs": [
        {
          "internalType": "uint256",
          "name": "tokenId",
          "type": "uint256"
        }
      ],
      "name": "fetchSingleNft",
      "outputs": [
        {
          "components": [
            {
              "internalType": "uint256",
              "name": "tokenId",
              "type": "uint256"
            },
            {
              "internalType": "address payable",
              "name": "seller",
              "type": "address"
            },
            {
              "internalType": "address payable",
              "name": "owner",
              "type": "address"
            },
            {
              "internalType": "uint256",
              "name": "price",
              "type": "uint256"
            },
            {
              "internalType": "bool",
              "name": "sold",
              "type": "bool"
            }
          ],
          "internalType": "struct NFTMarketplace.MarketItem",
          "name": "",
          "type": "tuple"
        }
      ],
      "stateMutability": "view",
      "type": "function",
      "constant": true
    },
    {
      "inputs": [],
      "name": "fetchItemsListed",
      "outputs": [
        {
          "components": [
            {
              "internalType": "uint256",
              "name": "tokenId",
              "type": "uint256"
            },
            {
              "internalType": "address payable",
              "name": "seller",
              "type": "address"
            },
            {
              "internalType": "address payable",
              "name": "owner",
              "type": "address"
            },
            {
              "internalType": "uint256",
              "name": "price",
              "type": "uint256"
            },
            {
              "internalType": "bool",
              "name": "sold",
              "type": "bool"
            }
          ],
          "internalType": "struct NFTMarketplace.MarketItem[]",
          "name": "",
          "type": "tuple[]"
        }
      ],
      "stateMutability": "view",
      "type": "function",
      "constant": true
    }
  ],
  "bytecode": "0x60806040526658d15e176280006009553480156200001c57600080fd5b506040518060400160405280601081526020017f4d657461766572736520546f6b656e73000000000000000000000000000000008152506040518060400160405280600481526020017f4d4554540000000000000000000000000000000000000000000000000000000081525081600090816200009a919062000370565b508060019081620000ac919062000370565b50505033600a60006101000a81548173ffffffffffffffffffffffffffffffffffffffff021916908373ffffffffffffffffffffffffffffffffffffffff16021790555062000457565b600081519050919050565b7f4e487b7100000000000000000000000000000000000000000000000000000000600052604160045260246000fd5b7f4e487b7100000000000000000000000000000000000000000000000000000000600052602260045260246000fd5b600060028204905060018216806200017857607f821691505b6020821081036200018e576200018d62000130565b5b50919050565b60008190508160005260206000209050919050565b60006020601f8301049050919050565b600082821b905092915050565b600060088302620001f87fffffffffffffffffffffffffffffffffffffffffffffffffffffffffffffffff82620001b9565b620002048683620001b9565b95508019841693508086168417925050509392505050565b6000819050919050565b6000819050919050565b6000620002516200024b62000245846200021c565b62000226565b6200021c565b9050919050565b6000819050919050565b6200026d8362000230565b620002856200027c8262000258565b848454620001c6565b825550505050565b600090565b6200029c6200028d565b620002a981848462000262565b505050565b5b81811015620002d157620002c560008262000292565b600181019050620002af565b5050565b601f8211156200032057620002ea8162000194565b620002f584620001a9565b8101602085101562000305578190505b6200031d6200031485620001a9565b830182620002ae565b50505b505050565b600082821c905092915050565b6000620003456000198460080262000325565b1980831691505092915050565b600062000360838362000332565b9150826002028217905092915050565b6200037b82620000f6565b67ffffffffffffffff81111562000397576200039662000101565b5b620003a382546200015f565b620003b0828285620002d5565b600060209050601f831160018114620003e85760008415620003d3578287015190505b620003df858262000352565b8655506200044f565b601f198416620003f88662000194565b60005b828110156200042257848901518255600182019150602085019450602081019050620003fb565b868310156200044257848901516200043e601f89168262000332565b8355505b6001600288020188555050505b505050505050565b61473d80620004676000396000f3fe6080604052600436106101355760003560e01c806370a08231116100ab578063b88d4fde1161006f578063b88d4fde14610420578063be9af53614610449578063c87b56dd14610465578063e219fc75146104a2578063e985e9c5146104be578063f0db4ba6146104fb57610135565b806370a082311461034357806372b3b6201461038057806395d89b41146103b0578063a22cb465146103db578063ae677aa31461040457610135565b806312e85585116100fd57806312e8558514610233578063202e37401461025e57806323b872dd1461028957806342842e0e146102b257806345f8fa80146102db5780636352211e1461030657610135565b806301ffc9a71461013a57806306fdde0314610177578063081812fc146101a2578063095ea7b3146101df5780630f08efe014610208575b600080fd5b34801561014657600080fd5b50610161600480360381019061015c9190612e70565b610538565b60405161016e9190612eb8565b60405180910390f35b34801561018357600080fd5b5061018c61061a565b6040516101999190612f63565b60405180910390f35b3480156101ae57600080fd5b506101c960048036038101906101c49190612fbb565b6106ac565b6040516101d69190613029565b60405180910390f35b3480156101eb57600080fd5b5061020660048036038101906102019190613070565b6106f2565b005b34801561021457600080fd5b5061021d610809565b60405161022a9190613206565b60405180910390f35b34801561023f57600080fd5b50610248610a71565b6040516102559190613237565b60405180910390f35b34801561026a57600080fd5b50610273610a7b565b6040516102809190613206565b60405180910390f35b34801561029557600080fd5b506102b060048036038101906102ab9190613252565b610d67565b005b3480156102be57600080fd5b506102d960048036038101906102d49190613252565b610dc7565b005b3480156102e757600080fd5b506102f0610de7565b6040516102fd9190613206565b60405180910390f35b34801561031257600080fd5b5061032d60048036038101906103289190612fbb565b6110d3565b60405161033a9190613029565b60405180910390f35b34801561034f57600080fd5b5061036a600480360381019061036591906132a5565b611159565b6040516103779190613237565b60405180910390f35b61039a60048036038101906103959190613407565b611210565b6040516103a79190613237565b60405180910390f35b3480156103bc57600080fd5b506103c5611252565b6040516103d29190612f63565b60405180910390f35b3480156103e757600080fd5b5061040260048036038101906103fd919061348f565b6112e4565b005b61041e60048036038101906104199190612fbb565b6112fa565b005b34801561042c57600080fd5b5061044760048036038101906104429190613570565b611424565b005b610463600480360381019061045e9190612fbb565b611486565b005b34801561047157600080fd5b5061048c60048036038101906104879190612fbb565b6116fa565b6040516104999190612f63565b60405180910390f35b6104bc60048036038101906104b791906135f3565b61180c565b005b3480156104ca57600080fd5b506104e560048036038101906104e09190613633565b611a3e565b6040516104f29190612eb8565b60405180910390f35b34801561050757600080fd5b50610522600480360381019061051d9190612fbb565b611ad2565b60405161052f91906136db565b60405180910390f35b60007f80ac58cd000000000000000000000000000000000000000000000000000000007bffffffffffffffffffffffffffffffffffffffffffffffffffffffff1916827bffffffffffffffffffffffffffffffffffffffffffffffffffffffff1916148061060357507f5b5e139f000000000000000000000000000000000000000000000000000000007bffffffffffffffffffffffffffffffffffffffffffffffffffffffff1916827bffffffffffffffffffffffffffffffffffffffffffffffffffffffff1916145b80610613575061061282611bda565b5b9050919050565b60606000805461062990613725565b80601f016020809104026020016040519081016040528092919081815260200182805461065590613725565b80156106a25780601f10610677576101008083540402835291602001916106a2565b820191906000526020600020905b81548152906001019060200180831161068557829003601f168201915b5050505050905090565b60006106b782611c44565b6004600083815260200190815260200160002060009054906101000a900473ffffffffffffffffffffffffffffffffffffffff169050919050565b60006106fd826110d3565b90508073ffffffffffffffffffffffffffffffffffffffff168373ffffffffffffffffffffffffffffffffffffffff160361076d576040517f08c379a0000000000000000000000000000000000000000000000000000000008152600401610764906137c8565b60405180910390fd5b8073ffffffffffffffffffffffffffffffffffffffff1661078c611c8f565b73ffffffffffffffffffffffffffffffffffffffff1614806107bb57506107ba816107b5611c8f565b611a3e565b5b6107fa576040517f08c379a00000000000000000000000000000000000000000000000000000000081526004016107f19061385a565b60405180910390fd5b6108048383611c97565b505050565b606060006108176007611d50565b905060006108256008611d50565b61082f6007611d50565b61083991906138a9565b90506000808267ffffffffffffffff811115610858576108576132dc565b5b60405190808252806020026020018201604052801561089157816020015b61087e612da7565b8152602001906001900390816108765790505b50905060005b84811015610a66573073ffffffffffffffffffffffffffffffffffffffff16600b60006001846108c791906138dd565b815260200190815260200160002060020160009054906101000a900473ffffffffffffffffffffffffffffffffffffffff1673ffffffffffffffffffffffffffffffffffffffff1603610a5357600060018261092391906138dd565b90506000600b60008381526020019081526020016000206040518060a0016040529081600082015481526020016001820160009054906101000a900473ffffffffffffffffffffffffffffffffffffffff1673ffffffffffffffffffffffffffffffffffffffff1673ffffffffffffffffffffffffffffffffffffffff1681526020016002820160009054906101000a900473ffffffffffffffffffffffffffffffffffffffff1673ffffffffffffffffffffffffffffffffffffffff1673ffffffffffffffffffffffffffffffffffffffff168152602001600382015481526020016004820160009054906101000a900460ff161515151581525050905080848681518110610a3657610a35613911565b5b6020026020010181905250600185610a4e91906138dd565b945050505b8080610a5e90613940565b915050610897565b508094505050505090565b6000600954905090565b60606000610a896007611d50565b905060008060005b83811015610b31573373ffffffffffffffffffffffffffffffffffffffff16600b6000600184610ac191906138dd565b815260200190815260200160002060020160009054906101000a900473ffffffffffffffffffffffffffffffffffffffff1673ffffffffffffffffffffffffffffffffffffffff1603610b1e57600183610b1b91906138dd565b92505b8080610b2990613940565b915050610a91565b5060008267ffffffffffffffff811115610b4e57610b4d6132dc565b5b604051908082528060200260200182016040528015610b8757816020015b610b74612da7565b815260200190600190039081610b6c5790505b50905060005b84811015610d5c573373ffffffffffffffffffffffffffffffffffffffff16600b6000600184610bbd91906138dd565b815260200190815260200160002060020160009054906101000a900473ffffffffffffffffffffffffffffffffffffffff1673ffffffffffffffffffffffffffffffffffffffff1603610d49576000600182610c1991906138dd565b90506000600b60008381526020019081526020016000206040518060a0016040529081600082015481526020016001820160009054906101000a900473ffffffffffffffffffffffffffffffffffffffff1673ffffffffffffffffffffffffffffffffffffffff1673ffffffffffffffffffffffffffffffffffffffff1681526020016002820160009054906101000a900473ffffffffffffffffffffffffffffffffffffffff1673ffffffffffffffffffffffffffffffffffffffff1673ffffffffffffffffffffffffffffffffffffffff168152602001600382015481526020016004820160009054906101000a900460ff161515151581525050905080848681518110610d2c57610d2b613911565b5b6020026020010181905250600185610d4491906138dd565b945050505b8080610d5490613940565b915050610b8d565b508094505050505090565b610d78610d72611c8f565b82611d5e565b610db7576040517f08c379a0000000000000000000000000000000000000000000000000000000008152600401610dae906139fa565b60405180910390fd5b610dc2838383611df3565b505050565b610de283838360405180602001604052806000815250611424565b505050565b60606000610df56007611d50565b905060008060005b83811015610e9d573373ffffffffffffffffffffffffffffffffffffffff16600b6000600184610e2d91906138dd565b815260200190815260200160002060010160009054906101000a900473ffffffffffffffffffffffffffffffffffffffff1673ffffffffffffffffffffffffffffffffffffffff1603610e8a57600183610e8791906138dd565b92505b8080610e9590613940565b915050610dfd565b5060008267ffffffffffffffff811115610eba57610eb96132dc565b5b604051908082528060200260200182016040528015610ef357816020015b610ee0612da7565b815260200190600190039081610ed85790505b50905060005b848110156110c8573373ffffffffffffffffffffffffffffffffffffffff16600b6000600184610f2991906138dd565b815260200190815260200160002060010160009054906101000a900473ffffffffffffffffffffffffffffffffffffffff1673ffffffffffffffffffffffffffffffffffffffff16036110b5576000600182610f8591906138dd565b90506000600b60008381526020019081526020016000206040518060a0016040529081600082015481526020016001820160009054906101000a900473ffffffffffffffffffffffffffffffffffffffff1673ffffffffffffffffffffffffffffffffffffffff1673ffffffffffffffffffffffffffffffffffffffff1681526020016002820160009054906101000a900473ffffffffffffffffffffffffffffffffffffffff1673ffffffffffffffffffffffffffffffffffffffff1673ffffffffffffffffffffffffffffffffffffffff168152602001600382015481526020016004820160009054906101000a900460ff16151515158152505090508084868151811061109857611097613911565b5b60200260200101819052506001856110b091906138dd565b945050505b80806110c090613940565b915050610ef9565b508094505050505090565b6000806110df836120ec565b9050600073ffffffffffffffffffffffffffffffffffffffff168173ffffffffffffffffffffffffffffffffffffffff1603611150576040517f08c379a000000000000000000000000000000000000000000000000000000000815260040161114790613a66565b60405180910390fd5b80915050919050565b60008073ffffffffffffffffffffffffffffffffffffffff168273ffffffffffffffffffffffffffffffffffffffff16036111c9576040517f08c379a00000000000000000000000000000000000000000000000000000000081526004016111c090613af8565b60405180910390fd5b600360008373ffffffffffffffffffffffffffffffffffffffff1673ffffffffffffffffffffffffffffffffffffffff168152602001908152602001600020549050919050565b600061121c6007612129565b60006112286007611d50565b9050611234338261213f565b61123e818561235c565b61124881846123c9565b8091505092915050565b60606001805461126190613725565b80601f016020809104026020016040519081016040528092919081815260200182805461128d90613725565b80156112da5780601f106112af576101008083540402835291602001916112da565b820191906000526020600020905b8154815290600101906020018083116112bd57829003601f168201915b5050505050905090565b6112f66112ef611c8f565b83836125cc565b5050565b600a60009054906101000a900473ffffffffffffffffffffffffffffffffffffffff1673ffffffffffffffffffffffffffffffffffffffff163373ffffffffffffffffffffffffffffffffffffffff161461138a576040517f08c379a000000000000000000000000000000000000000000000000000000000815260040161138190613b8a565b60405180910390fd5b3373ffffffffffffffffffffffffffffffffffffffff16600a60009054906101000a900473ffffffffffffffffffffffffffffffffffffffff1673ffffffffffffffffffffffffffffffffffffffff161461141a576040517f08c379a000000000000000000000000000000000000000000000000000000000815260040161141190613c1c565b60405180910390fd5b8060098190555050565b61143561142f611c8f565b83611d5e565b611474576040517f08c379a000000000000000000000000000000000000000000000000000000000815260040161146b906139fa565b60405180910390fd5b61148084848484612738565b50505050565b6000600b60008381526020019081526020016000206003015490508034146114e3576040517f08c379a00000000000000000000000000000000000000000000000000000000081526004016114da90613cae565b60405180910390fd5b33600b600084815260200190815260200160002060020160006101000a81548173ffffffffffffffffffffffffffffffffffffffff021916908373ffffffffffffffffffffffffffffffffffffffff1602179055506001600b600084815260200190815260200160002060040160006101000a81548160ff0219169083151502179055506000600b600084815260200190815260200160002060010160006101000a81548173ffffffffffffffffffffffffffffffffffffffff021916908373ffffffffffffffffffffffffffffffffffffffff1602179055506115c76008612129565b6115d2303384611df3565b600a60009054906101000a900473ffffffffffffffffffffffffffffffffffffffff1673ffffffffffffffffffffffffffffffffffffffff166108fc6009549081150290604051600060405180830381858888f1935050505015801561163c573d6000803e3d6000fd5b50600b600083815260200190815260200160002060010160009054906101000a900473ffffffffffffffffffffffffffffffffffffffff1673ffffffffffffffffffffffffffffffffffffffff166108fc349081150290604051600060405180830381858888f193505050501580156116b9573d6000803e3d6000fd5b507fcdd65032587b7af3648a7dd5a4e12dfed988b1ede0d00c8d5d32d098835bd4ad826000336040516116ee93929190613cce565b60405180910390a15050565b606061170582611c44565b600060066000848152602001908152602001600020805461172590613725565b80601f016020809104026020016040519081016040528092919081815260200182805461175190613725565b801561179e5780601f106117735761010080835404028352916020019161179e565b820191906000526020600020905b81548152906001019060200180831161178157829003601f168201915b5050505050905060006117af612794565b905060008151036117c4578192505050611807565b6000825111156117f95780826040516020016117e1929190613d41565b60405160208183030381529060405292505050611807565b611802846127ab565b925050505b919050565b3373ffffffffffffffffffffffffffffffffffffffff16600b600084815260200190815260200160002060020160009054906101000a900473ffffffffffffffffffffffffffffffffffffffff1673ffffffffffffffffffffffffffffffffffffffff16146118b0576040517f08c379a00000000000000000000000000000000000000000000000000000000081526004016118a790613dd7565b60405180910390fd5b60095434146118f4576040517f08c379a00000000000000000000000000000000000000000000000000000000081526004016118eb90613e69565b60405180910390fd5b6000600b600084815260200190815260200160002060040160006101000a81548160ff02191690831515021790555080600b60008481526020019081526020016000206003018190555033600b600084815260200190815260200160002060010160006101000a81548173ffffffffffffffffffffffffffffffffffffffff021916908373ffffffffffffffffffffffffffffffffffffffff16021790555030600b600084815260200190815260200160002060020160006101000a81548173ffffffffffffffffffffffffffffffffffffffff021916908373ffffffffffffffffffffffffffffffffffffffff1602179055506119f26008612813565b6119fd333084611df3565b7f4246c23d007fb94841a2d8e6822880a848862777c0656f1e701ac56f5079113e82333084604051611a329493929190613e89565b60405180910390a15050565b6000600560008473ffffffffffffffffffffffffffffffffffffffff1673ffffffffffffffffffffffffffffffffffffffff16815260200190815260200160002060008373ffffffffffffffffffffffffffffffffffffffff1673ffffffffffffffffffffffffffffffffffffffff16815260200190815260200160002060009054906101000a900460ff16905092915050565b611ada612da7565b600b60008381526020019081526020016000206040518060a0016040529081600082015481526020016001820160009054906101000a900473ffffffffffffffffffffffffffffffffffffffff1673ffffffffffffffffffffffffffffffffffffffff1673ffffffffffffffffffffffffffffffffffffffff1681526020016002820160009054906101000a900473ffffffffffffffffffffffffffffffffffffffff1673ffffffffffffffffffffffffffffffffffffffff1673ffffffffffffffffffffffffffffffffffffffff168152602001600382015481526020016004820160009054906101000a900460ff1615151515815250509050919050565b60007f01ffc9a7000000000000000000000000000000000000000000000000000000007bffffffffffffffffffffffffffffffffffffffffffffffffffffffff1916827bffffffffffffffffffffffffffffffffffffffffffffffffffffffff1916149050919050565b611c4d8161286f565b611c8c576040517f08c379a0000000000000000000000000000000000000000000000000000000008152600401611c8390613a66565b60405180910390fd5b50565b600033905090565b816004600083815260200190815260200160002060006101000a81548173ffffffffffffffffffffffffffffffffffffffff021916908373ffffffffffffffffffffffffffffffffffffffff160217905550808273ffffffffffffffffffffffffffffffffffffffff16611d0a836110d3565b73ffffffffffffffffffffffffffffffffffffffff167f8c5be1e5ebec7d5bd14f71427d1e84f3dd0314c0f7b2291e5b200ac8c7c3b92560405160405180910390a45050565b600081600001549050919050565b600080611d6a836110d3565b90508073ffffffffffffffffffffffffffffffffffffffff168473ffffffffffffffffffffffffffffffffffffffff161480611dac5750611dab8185611a3e565b5b80611dea57508373ffffffffffffffffffffffffffffffffffffffff16611dd2846106ac565b73ffffffffffffffffffffffffffffffffffffffff16145b91505092915050565b8273ffffffffffffffffffffffffffffffffffffffff16611e13826110d3565b73ffffffffffffffffffffffffffffffffffffffff1614611e69576040517f08c379a0000000000000000000000000000000000000000000000000000000008152600401611e6090613f40565b60405180910390fd5b600073ffffffffffffffffffffffffffffffffffffffff168273ffffffffffffffffffffffffffffffffffffffff1603611ed8576040517f08c379a0000000000000000000000000000000000000000000000000000000008152600401611ecf90613fd2565b60405180910390fd5b611ee583838360016128b0565b8273ffffffffffffffffffffffffffffffffffffffff16611f05826110d3565b73ffffffffffffffffffffffffffffffffffffffff1614611f5b576040517f08c379a0000000000000000000000000000000000000000000000000000000008152600401611f5290613f40565b60405180910390fd5b6004600082815260200190815260200160002060006101000a81549073ffffffffffffffffffffffffffffffffffffffff02191690556001600360008573ffffffffffffffffffffffffffffffffffffffff1673ffffffffffffffffffffffffffffffffffffffff168152602001908152602001600020600082825403925050819055506001600360008473ffffffffffffffffffffffffffffffffffffffff1673ffffffffffffffffffffffffffffffffffffffff16815260200190815260200160002060008282540192505081905550816002600083815260200190815260200160002060006101000a81548173ffffffffffffffffffffffffffffffffffffffff021916908373ffffffffffffffffffffffffffffffffffffffff160217905550808273ffffffffffffffffffffffffffffffffffffffff168473ffffffffffffffffffffffffffffffffffffffff167fddf252ad1be2c89b69c2b068fc378daa952ba7f163c4a11628f55a4df523b3ef60405160405180910390a46120e783838360016129d6565b505050565b60006002600083815260200190815260200160002060009054906101000a900473ffffffffffffffffffffffffffffffffffffffff169050919050565b6001816000016000828254019250508190555050565b600073ffffffffffffffffffffffffffffffffffffffff168273ffffffffffffffffffffffffffffffffffffffff16036121ae576040517f08c379a00000000000000000000000000000000000000000000000000000000081526004016121a59061403e565b60405180910390fd5b6121b78161286f565b156121f7576040517f08c379a00000000000000000000000000000000000000000000000000000000081526004016121ee906140aa565b60405180910390fd5b6122056000838360016128b0565b61220e8161286f565b1561224e576040517f08c379a0000000000000000000000000000000000000000000000000000000008152600401612245906140aa565b60405180910390fd5b6001600360008473ffffffffffffffffffffffffffffffffffffffff1673ffffffffffffffffffffffffffffffffffffffff16815260200190815260200160002060008282540192505081905550816002600083815260200190815260200160002060006101000a81548173ffffffffffffffffffffffffffffffffffffffff021916908373ffffffffffffffffffffffffffffffffffffffff160217905550808273ffffffffffffffffffffffffffffffffffffffff16600073ffffffffffffffffffffffffffffffffffffffff167fddf252ad1be2c89b69c2b068fc378daa952ba7f163c4a11628f55a4df523b3ef60405160405180910390a46123586000838360016129d6565b5050565b6123658261286f565b6123a4576040517f08c379a000000000000000000000000000000000000000000000000000000000815260040161239b9061413c565b60405180910390fd5b806006600084815260200190815260200160002090816123c49190614308565b505050565b6000811161240c576040517f08c379a000000000000000000000000000000000000000000000000000000000815260040161240390614426565b60405180910390fd5b6009543414612450576040517f08c379a000000000000000000000000000000000000000000000000000000000815260040161244790613e69565b60405180910390fd5b6040518060a001604052808381526020013373ffffffffffffffffffffffffffffffffffffffff1681526020013073ffffffffffffffffffffffffffffffffffffffff16815260200182815260200160001515815250600b60008481526020019081526020016000206000820151816000015560208201518160010160006101000a81548173ffffffffffffffffffffffffffffffffffffffff021916908373ffffffffffffffffffffffffffffffffffffffff16021790555060408201518160020160006101000a81548173ffffffffffffffffffffffffffffffffffffffff021916908373ffffffffffffffffffffffffffffffffffffffff1602179055506060820151816003015560808201518160040160006101000a81548160ff021916908315150217905550905050612589333084611df3565b817fb640004f1d14576d0c209e240cad0410e0d8c0c33a09375861fbadae2588a98d33308460006040516125c09493929190614446565b60405180910390a25050565b8173ffffffffffffffffffffffffffffffffffffffff168373ffffffffffffffffffffffffffffffffffffffff160361263a576040517f08c379a0000000000000000000000000000000000000000000000000000000008152600401612631906144d7565b60405180910390fd5b80600560008573ffffffffffffffffffffffffffffffffffffffff1673ffffffffffffffffffffffffffffffffffffffff16815260200190815260200160002060008473ffffffffffffffffffffffffffffffffffffffff1673ffffffffffffffffffffffffffffffffffffffff16815260200190815260200160002060006101000a81548160ff0219169083151502179055508173ffffffffffffffffffffffffffffffffffffffff168373ffffffffffffffffffffffffffffffffffffffff167f17307eab39ab6107e8899845ad3d59bd9653f200f220920489ca2b5937696c318360405161272b9190612eb8565b60405180910390a3505050565b612743848484611df3565b61274f848484846129dc565b61278e576040517f08c379a000000000000000000000000000000000000000000000000000000000815260040161278590614569565b60405180910390fd5b50505050565b606060405180602001604052806000815250905090565b60606127b682611c44565b60006127c0612794565b905060008151116127e0576040518060200160405280600081525061280b565b806127ea84612b63565b6040516020016127fb929190613d41565b6040516020818303038152906040525b915050919050565b6000816000015490506000811161285f576040517f08c379a0000000000000000000000000000000000000000000000000000000008152600401612856906145d5565b60405180910390fd5b6001810382600001819055505050565b60008073ffffffffffffffffffffffffffffffffffffffff16612891836120ec565b73ffffffffffffffffffffffffffffffffffffffff1614159050919050565b60018111156129d057600073ffffffffffffffffffffffffffffffffffffffff168473ffffffffffffffffffffffffffffffffffffffff16146129445780600360008673ffffffffffffffffffffffffffffffffffffffff1673ffffffffffffffffffffffffffffffffffffffff168152602001908152602001600020600082825461293c91906138a9565b925050819055505b600073ffffffffffffffffffffffffffffffffffffffff168373ffffffffffffffffffffffffffffffffffffffff16146129cf5780600360008573ffffffffffffffffffffffffffffffffffffffff1673ffffffffffffffffffffffffffffffffffffffff16815260200190815260200160002060008282546129c791906138dd565b925050819055505b5b50505050565b50505050565b60006129fd8473ffffffffffffffffffffffffffffffffffffffff16612c31565b15612b56578373ffffffffffffffffffffffffffffffffffffffff1663150b7a02612a26611c8f565b8786866040518563ffffffff1660e01b8152600401612a48949392919061464a565b6020604051808303816000875af1925050508015612a8457506040513d601f19601f82011682018060405250810190612a8191906146ab565b60015b612b06573d8060008114612ab4576040519150601f19603f3d011682016040523d82523d6000602084013e612ab9565b606091505b506000815103612afe576040517f08c379a0000000000000000000000000000000000000000000000000000000008152600401612af590614569565b60405180910390fd5b805181602001fd5b63150b7a0260e01b7bffffffffffffffffffffffffffffffffffffffffffffffffffffffff1916817bffffffffffffffffffffffffffffffffffffffffffffffffffffffff191614915050612b5b565b600190505b949350505050565b606060006001612b7284612c54565b01905060008167ffffffffffffffff811115612b9157612b906132dc565b5b6040519080825280601f01601f191660200182016040528015612bc35781602001600182028036833780820191505090505b509050600082602001820190505b600115612c26578080600190039150507f3031323334353637383961626364656600000000000000000000000000000000600a86061a8153600a8581612c1a57612c196146d8565b5b04945060008503612bd1575b819350505050919050565b6000808273ffffffffffffffffffffffffffffffffffffffff163b119050919050565b600080600090507a184f03e93ff9f4daa797ed6e38ed64bf6a1f0100000000000000008310612cb2577a184f03e93ff9f4daa797ed6e38ed64bf6a1f0100000000000000008381612ca857612ca76146d8565b5b0492506040810190505b6d04ee2d6d415b85acef81000000008310612cef576d04ee2d6d415b85acef81000000008381612ce557612ce46146d8565b5b0492506020810190505b662386f26fc100008310612d1e57662386f26fc100008381612d1457612d136146d8565b5b0492506010810190505b6305f5e1008310612d47576305f5e1008381612d3d57612d3c6146d8565b5b0492506008810190505b6127108310612d6c576127108381612d6257612d616146d8565b5b0492506004810190505b60648310612d8f5760648381612d8557612d846146d8565b5b0492506002810190505b600a8310612d9e576001810190505b80915050919050565b6040518060a0016040528060008152602001600073ffffffffffffffffffffffffffffffffffffffff168152602001600073ffffffffffffffffffffffffffffffffffffffff168152602001600081526020016000151581525090565b6000604051905090565b600080fd5b600080fd5b60007fffffffff0000000000000000000000000000000000000000000000000000000082169050919050565b612e4d81612e18565b8114612e5857600080fd5b50565b600081359050612e6a81612e44565b92915050565b600060208284031215612e8657612e85612e0e565b5b6000612e9484828501612e5b565b91505092915050565b60008115159050919050565b612eb281612e9d565b82525050565b6000602082019050612ecd6000830184612ea9565b92915050565b600081519050919050565b600082825260208201905092915050565b60005b83811015612f0d578082015181840152602081019050612ef2565b60008484015250505050565b6000601f19601f8301169050919050565b6000612f3582612ed3565b612f3f8185612ede565b9350612f4f818560208601612eef565b612f5881612f19565b840191505092915050565b60006020820190508181036000830152612f7d8184612f2a565b905092915050565b6000819050919050565b612f9881612f85565b8114612fa357600080fd5b50565b600081359050612fb581612f8f565b92915050565b600060208284031215612fd157612fd0612e0e565b5b6000612fdf84828501612fa6565b91505092915050565b600073ffffffffffffffffffffffffffffffffffffffff82169050919050565b600061301382612fe8565b9050919050565b61302381613008565b82525050565b600060208201905061303e600083018461301a565b92915050565b61304d81613008565b811461305857600080fd5b50565b60008135905061306a81613044565b92915050565b6000806040838503121561308757613086612e0e565b5b60006130958582860161305b565b92505060206130a685828601612fa6565b9150509250929050565b600081519050919050565b600082825260208201905092915050565b6000819050602082019050919050565b6130e581612f85565b82525050565b60006130f682612fe8565b9050919050565b613106816130eb565b82525050565b61311581612e9d565b82525050565b60a08201600082015161313160008501826130dc565b50602082015161314460208501826130fd565b50604082015161315760408501826130fd565b50606082015161316a60608501826130dc565b50608082015161317d608085018261310c565b50505050565b600061318f838361311b565b60a08301905092915050565b6000602082019050919050565b60006131b3826130b0565b6131bd81856130bb565b93506131c8836130cc565b8060005b838110156131f95781516131e08882613183565b97506131eb8361319b565b9250506001810190506131cc565b5085935050505092915050565b6000602082019050818103600083015261322081846131a8565b905092915050565b61323181612f85565b82525050565b600060208201905061324c6000830184613228565b92915050565b60008060006060848603121561326b5761326a612e0e565b5b60006132798682870161305b565b935050602061328a8682870161305b565b925050604061329b86828701612fa6565b9150509250925092565b6000602082840312156132bb576132ba612e0e565b5b60006132c98482850161305b565b91505092915050565b600080fd5b600080fd5b7f4e487b7100000000000000000000000000000000000000000000000000000000600052604160045260246000fd5b61331482612f19565b810181811067ffffffffffffffff82111715613333576133326132dc565b5b80604052505050565b6000613346612e04565b9050613352828261330b565b919050565b600067ffffffffffffffff821115613372576133716132dc565b5b61337b82612f19565b9050602081019050919050565b82818337600083830152505050565b60006133aa6133a584613357565b61333c565b9050828152602081018484840111156133c6576133c56132d7565b5b6133d1848285613388565b509392505050565b600082601f8301126133ee576133ed6132d2565b5b81356133fe848260208601613397565b91505092915050565b6000806040838503121561341e5761341d612e0e565b5b600083013567ffffffffffffffff81111561343c5761343b612e13565b5b613448858286016133d9565b925050602061345985828601612fa6565b9150509250929050565b61346c81612e9d565b811461347757600080fd5b50565b60008135905061348981613463565b92915050565b600080604083850312156134a6576134a5612e0e565b5b60006134b48582860161305b565b92505060206134c58582860161347a565b9150509250929050565b600067ffffffffffffffff8211156134ea576134e96132dc565b5b6134f382612f19565b9050602081019050919050565b600061351361350e846134cf565b61333c565b90508281526020810184848401111561352f5761352e6132d7565b5b61353a848285613388565b509392505050565b600082601f830112613557576135566132d2565b5b8135613567848260208601613500565b91505092915050565b6000806000806080858703121561358a57613589612e0e565b5b60006135988782880161305b565b94505060206135a98782880161305b565b93505060406135ba87828801612fa6565b925050606085013567ffffffffffffffff8111156135db576135da612e13565b5b6135e787828801613542565b91505092959194509250565b6000806040838503121561360a57613609612e0e565b5b600061361885828601612fa6565b925050602061362985828601612fa6565b9150509250929050565b6000806040838503121561364a57613649612e0e565b5b60006136588582860161305b565b92505060206136698582860161305b565b9150509250929050565b60a08201600082015161368960008501826130dc565b50602082015161369c60208501826130fd565b5060408201516136af60408501826130fd565b5060608201516136c260608501826130dc565b5060808201516136d5608085018261310c565b50505050565b600060a0820190506136f06000830184613673565b92915050565b7f4e487b7100000000000000000000000000000000000000000000000000000000600052602260045260246000fd5b6000600282049050600182168061373d57607f821691505b6020821081036137505761374f6136f6565b5b50919050565b7f4552433732313a20617070726f76616c20746f2063757272656e74206f776e6560008201527f7200000000000000000000000000000000000000000000000000000000000000602082015250565b60006137b2602183612ede565b91506137bd82613756565b604082019050919050565b600060208201905081810360008301526137e1816137a5565b9050919050565b7f4552433732313a20617070726f76652063616c6c6572206973206e6f7420746f60008201527f6b656e206f776e6572206f7220617070726f76656420666f7220616c6c000000602082015250565b6000613844603d83612ede565b915061384f826137e8565b604082019050919050565b6000602082019050818103600083015261387381613837565b9050919050565b7f4e487b7100000000000000000000000000000000000000000000000000000000600052601160045260246000fd5b60006138b482612f85565b91506138bf83612f85565b92508282039050818111156138d7576138d661387a565b5b92915050565b60006138e882612f85565b91506138f383612f85565b925082820190508082111561390b5761390a61387a565b5b92915050565b7f4e487b7100000000000000000000000000000000000000000000000000000000600052603260045260246000fd5b600061394b82612f85565b91507fffffffffffffffffffffffffffffffffffffffffffffffffffffffffffffffff820361397d5761397c61387a565b5b600182019050919050565b7f4552433732313a2063616c6c6572206973206e6f7420746f6b656e206f776e6560008201527f72206f7220617070726f76656400000000000000000000000000000000000000602082015250565b60006139e4602d83612ede565b91506139ef82613988565b604082019050919050565b60006020820190508181036000830152613a13816139d7565b9050919050565b7f4552433732313a20696e76616c696420746f6b656e2049440000000000000000600082015250565b6000613a50601883612ede565b9150613a5b82613a1a565b602082019050919050565b60006020820190508181036000830152613a7f81613a43565b9050919050565b7f4552433732313a2061646472657373207a65726f206973206e6f74206120766160008201527f6c6964206f776e65720000000000000000000000000000000000000000000000602082015250565b6000613ae2602983612ede565b9150613aed82613a86565b604082019050919050565b60006020820190508181036000830152613b1181613ad5565b9050919050565b7f6f6e6c79206f776e6572206f6620746865206d61726b6574706c61636520636160008201527f6e206368616e676520746865206c697374696e67207072696365000000000000602082015250565b6000613b74603a83612ede565b9150613b7f82613b18565b604082019050919050565b60006020820190508181036000830152613ba381613b67565b9050919050565b7f4f6e6c79206d61726b6574706c616365206f776e65722063616e20757064617460008201527f65206c697374696e672070726963652e00000000000000000000000000000000602082015250565b6000613c06603083612ede565b9150613c1182613baa565b604082019050919050565b60006020820190508181036000830152613c3581613bf9565b9050919050565b7f506c65617365207375626d6974207468652061736b696e67207072696365206960008201527f6e206f7264657220746f20636f6d706c65746520746865207075726368617365602082015250565b6000613c98604083612ede565b9150613ca382613c3c565b604082019050919050565b60006020820190508181036000830152613cc781613c8b565b9050919050565b6000606082019050613ce36000830186613228565b613cf0602083018561301a565b613cfd604083018461301a565b949350505050565b600081905092915050565b6000613d1b82612ed3565b613d258185613d05565b9350613d35818560208601612eef565b80840191505092915050565b6000613d4d8285613d10565b9150613d598284613d10565b91508190509392505050565b7f4f6e6c79206974656d206f776e65722063616e20706572666f726d207468697360008201527f206f7065726174696f6e00000000000000000000000000000000000000000000602082015250565b6000613dc1602a83612ede565b9150613dcc82613d65565b604082019050919050565b60006020820190508181036000830152613df081613db4565b9050919050565b7f5072696365206d75737420626520657175616c20746f206c697374696e67207060008201527f7269636500000000000000000000000000000000000000000000000000000000602082015250565b6000613e53602483612ede565b9150613e5e82613df7565b604082019050919050565b60006020820190508181036000830152613e8281613e46565b9050919050565b6000608082019050613e9e6000830187613228565b613eab602083018661301a565b613eb8604083018561301a565b613ec56060830184613228565b95945050505050565b7f4552433732313a207472616e736665722066726f6d20696e636f72726563742060008201527f6f776e6572000000000000000000000000000000000000000000000000000000602082015250565b6000613f2a602583612ede565b9150613f3582613ece565b604082019050919050565b60006020820190508181036000830152613f5981613f1d565b9050919050565b7f4552433732313a207472616e7366657220746f20746865207a65726f2061646460008201527f7265737300000000000000000000000000000000000000000000000000000000602082015250565b6000613fbc602483612ede565b9150613fc782613f60565b604082019050919050565b60006020820190508181036000830152613feb81613faf565b9050919050565b7f4552433732313a206d696e7420746f20746865207a65726f2061646472657373600082015250565b6000614028602083612ede565b915061403382613ff2565b602082019050919050565b600060208201905081810360008301526140578161401b565b9050919050565b7f4552433732313a20746f6b656e20616c7265616479206d696e74656400000000600082015250565b6000614094601c83612ede565b915061409f8261405e565b602082019050919050565b600060208201905081810360008301526140c381614087565b9050919050565b7f45524337323155524953746f726167653a2055524920736574206f66206e6f6e60008201527f6578697374656e7420746f6b656e000000000000000000000000000000000000602082015250565b6000614126602e83612ede565b9150614131826140ca565b604082019050919050565b6000602082019050818103600083015261415581614119565b9050919050565b60008190508160005260206000209050919050565b60006020601f8301049050919050565b600082821b905092915050565b6000600883026141be7fffffffffffffffffffffffffffffffffffffffffffffffffffffffffffffffff82614181565b6141c88683614181565b95508019841693508086168417925050509392505050565b6000819050919050565b60006142056142006141fb84612f85565b6141e0565b612f85565b9050919050565b6000819050919050565b61421f836141ea565b61423361422b8261420c565b84845461418e565b825550505050565b600090565b61424861423b565b614253818484614216565b505050565b5b818110156142775761426c600082614240565b600181019050614259565b5050565b601f8211156142bc5761428d8161415c565b61429684614171565b810160208510156142a5578190505b6142b96142b185614171565b830182614258565b50505b505050565b600082821c905092915050565b60006142df600019846008026142c1565b1980831691505092915050565b60006142f883836142ce565b9150826002028217905092915050565b61431182612ed3565b67ffffffffffffffff81111561432a576143296132dc565b5b6143348254613725565b61433f82828561427b565b600060209050601f8311600181146143725760008415614360578287015190505b61436a85826142ec565b8655506143d2565b601f1984166143808661415c565b60005b828110156143a857848901518255600182019150602085019450602081019050614383565b868310156143c557848901516143c1601f8916826142ce565b8355505b6001600288020188555050505b505050505050565b7f5072696365206d757374206265206174206c6561737420312077656900000000600082015250565b6000614410601c83612ede565b915061441b826143da565b602082019050919050565b6000602082019050818103600083015261443f81614403565b9050919050565b600060808201905061445b600083018761301a565b614468602083018661301a565b6144756040830185613228565b6144826060830184612ea9565b95945050505050565b7f4552433732313a20617070726f766520746f2063616c6c657200000000000000600082015250565b60006144c1601983612ede565b91506144cc8261448b565b602082019050919050565b600060208201905081810360008301526144f0816144b4565b9050919050565b7f4552433732313a207472616e7366657220746f206e6f6e20455243373231526560008201527f63656976657220696d706c656d656e7465720000000000000000000000000000602082015250565b6000614553603283612ede565b915061455e826144f7565b604082019050919050565b6000602082019050818103600083015261458281614546565b9050919050565b7f436f756e7465723a2064656372656d656e74206f766572666c6f770000000000600082015250565b60006145bf601b83612ede565b91506145ca82614589565b602082019050919050565b600060208201905081810360008301526145ee816145b2565b9050919050565b600081519050919050565b600082825260208201905092915050565b600061461c826145f5565b6146268185614600565b9350614636818560208601612eef565b61463f81612f19565b840191505092915050565b600060808201905061465f600083018761301a565b61466c602083018661301a565b6146796040830185613228565b818103606083015261468b8184614611565b905095945050505050565b6000815190506146a581612e44565b92915050565b6000602082840312156146c1576146c0612e0e565b5b60006146cf84828501614696565b91505092915050565b7f4e487b7100000000000000000000000000000000000000000000000000000000600052601260045260246000fdfea264697066735822122093a334dd3107887ca77e680b0d46ac3cf57f84a47bb6d7f083199cf28ffe212b64736f6c63430008120033",
  "immutableReferences": {},
  "source": "// SPDX-License-Identifier: MIT\r\npragma solidity ^0.8.4;\r\n\r\nimport \"@openzeppelin/contracts/utils/Counters.sol\";\r\nimport \"@openzeppelin/contracts/token/ERC721/extensions/ERC721URIStorage.sol\";\r\nimport \"@openzeppelin/contracts/token/ERC721/ERC721.sol\";\r\n\r\n\r\ncontract NFTMarketplace is ERC721URIStorage {\r\n    using Counters for Counters.Counter;\r\n    Counters.Counter private _tokenIds;\r\n    Counters.Counter private _itemsSold;\r\n\r\n    uint256 listingPrice = 0.025 ether;\r\n    address payable owner;\r\n\r\n    mapping(uint256 => MarketItem) private idToMarketItem;\r\n\r\n    struct MarketItem {\r\n        uint256 tokenId;\r\n        address payable seller;\r\n        address payable owner;\r\n        uint256 price;\r\n        bool sold;\r\n    }\r\n\r\n    event MarketItemCreated(\r\n        uint256 indexed tokenId,\r\n        address seller,\r\n        address owner,\r\n        uint256 price,\r\n        bool sold\r\n    );\r\n\r\n    event buyEvent(\r\n        uint256 tokenId,\r\n        address seller,\r\n        address owner\r\n    );\r\n\r\n    event resellEvent(\r\n        uint256 tokenId,\r\n        address seller,\r\n        address owner,\r\n        uint256 price\r\n    );\r\n\r\n    modifier onlyOwner() {\r\n        require(\r\n            msg.sender == owner,\r\n            \"only owner of the marketplace can change the listing price\"\r\n        );\r\n        _;\r\n    }\r\n\r\n    constructor() ERC721(\"Metaverse Tokens\", \"METT\") {\r\n        owner = payable(msg.sender);\r\n    }\r\n\r\n    /* Updates the listing price of the contract */\r\n    function updateListingPrice(uint256 _listingPrice)\r\n        public\r\n        payable\r\n        onlyOwner\r\n    {\r\n        require(\r\n            owner == msg.sender,\r\n            \"Only marketplace owner can update listing price.\"\r\n        );\r\n        listingPrice = _listingPrice;\r\n    }\r\n\r\n    /* Returns the listing price of the contract */\r\n    function getListingPrice() public view returns (uint256) {\r\n        return listingPrice;\r\n    }\r\n\r\n    /* Mints a token and lists it in the marketplace */\r\n    function createToken(string memory tokenURI, uint256 price)\r\n        public\r\n        payable\r\n        returns (uint256)\r\n    {\r\n        _tokenIds.increment();\r\n        uint256 newTokenId = _tokenIds.current();\r\n\r\n        _mint(msg.sender, newTokenId);\r\n        _setTokenURI(newTokenId, tokenURI);\r\n        createMarketItem(newTokenId, price);\r\n        return newTokenId;\r\n    }\r\n\r\n    function createMarketItem(uint256 tokenId, uint256 price) private {\r\n        require(price > 0, \"Price must be at least 1 wei\");\r\n        require(\r\n            msg.value == listingPrice,\r\n            \"Price must be equal to listing price\"\r\n        );\r\n\r\n        idToMarketItem[tokenId] = MarketItem(\r\n            tokenId,\r\n            payable(msg.sender),\r\n            payable(address(this)),\r\n            price,\r\n            false\r\n        );\r\n\r\n        _transfer(msg.sender, address(this), tokenId);\r\n        emit MarketItemCreated(\r\n            tokenId,\r\n            msg.sender,\r\n            address(this),\r\n            price,\r\n            false\r\n        );\r\n    }\r\n\r\n    /* allows someone to resell a token they have purchased */\r\n    function resellToken(uint256 tokenId, uint256 price) public payable {\r\n        require(\r\n            idToMarketItem[tokenId].owner == msg.sender,\r\n            \"Only item owner can perform this operation\"\r\n        );\r\n        require(\r\n            msg.value == listingPrice,\r\n            \"Price must be equal to listing price\"\r\n        );\r\n        idToMarketItem[tokenId].sold = false;\r\n        idToMarketItem[tokenId].price = price;\r\n        idToMarketItem[tokenId].seller = payable(msg.sender);\r\n        idToMarketItem[tokenId].owner = payable(address(this));\r\n        _itemsSold.decrement();\r\n\r\n        _transfer(msg.sender, address(this), tokenId);\r\n        emit resellEvent(tokenId,msg.sender, address(this), price);\r\n    }\r\n\r\n    /* Creates the sale of a marketplace item */\r\n    /* Transfers ownership of the item, as well as funds between parties */\r\n    function createMarketSale(uint256 tokenId) public payable {\r\n        uint256 price = idToMarketItem[tokenId].price;\r\n        require(\r\n            msg.value == price,\r\n            \"Please submit the asking price in order to complete the purchase\"\r\n        );\r\n        idToMarketItem[tokenId].owner = payable(msg.sender);\r\n        idToMarketItem[tokenId].sold = true;\r\n        idToMarketItem[tokenId].seller = payable(address(0));\r\n        _itemsSold.increment();\r\n        _transfer(address(this), msg.sender, tokenId);\r\n        payable(owner).transfer(listingPrice);\r\n        payable(idToMarketItem[tokenId].seller).transfer(msg.value);\r\n\r\n        emit buyEvent(tokenId,address(0),msg.sender);\r\n    }\r\n\r\n    /* Returns all unsold market items */\r\n    function fetchMarketItems() public view returns (MarketItem[] memory) {\r\n        uint256 itemCount = _tokenIds.current();\r\n        uint256 unsoldItemCount = _tokenIds.current() - _itemsSold.current();\r\n        uint256 currentIndex = 0;\r\n\r\n        MarketItem[] memory items = new MarketItem[](unsoldItemCount);\r\n        for (uint256 i = 0; i < itemCount; i++) {\r\n            if (idToMarketItem[i + 1].owner == address(this)) {\r\n                uint256 currentId = i + 1;\r\n                MarketItem memory currentItem = idToMarketItem[currentId];\r\n                items[currentIndex] = currentItem;\r\n                currentIndex += 1;\r\n            }\r\n        }\r\n        return items;\r\n    }\r\n\r\n    /* Returns only items that a user has purchased */\r\n    function fetchMyNFTs() public view returns (MarketItem[] memory) {\r\n        uint256 totalItemCount = _tokenIds.current();\r\n        uint256 itemCount = 0;\r\n        uint256 currentIndex = 0;\r\n\r\n        for (uint256 i = 0; i < totalItemCount; i++) {\r\n            if (idToMarketItem[i + 1].owner == msg.sender) {\r\n                itemCount += 1;\r\n            }\r\n        }\r\n\r\n        MarketItem[] memory items = new MarketItem[](itemCount);\r\n        for (uint256 i = 0; i < totalItemCount; i++) {\r\n            if (idToMarketItem[i + 1].owner == msg.sender) {\r\n                uint256 currentId = i + 1;\r\n                MarketItem memory currentItem = idToMarketItem[currentId];\r\n                items[currentIndex] = currentItem;\r\n                currentIndex += 1;\r\n            }\r\n        }\r\n        return items;\r\n    }\r\n\r\n    function fetchSingleNft(uint256 tokenId) public view returns( MarketItem memory) {\r\n        return idToMarketItem[tokenId];\r\n    }\r\n\r\n    /* Returns only items a user has listed */\r\n    function fetchItemsListed() public view returns (MarketItem[] memory) {\r\n        uint256 totalItemCount = _tokenIds.current();\r\n        uint256 itemCount = 0;\r\n        uint256 currentIndex = 0;\r\n\r\n        for (uint256 i = 0; i < totalItemCount; i++) {\r\n            if (idToMarketItem[i + 1].seller == msg.sender) {\r\n                itemCount += 1;\r\n            }\r\n        }\r\n\r\n        MarketItem[] memory items = new MarketItem[](itemCount);\r\n        for (uint256 i = 0; i < totalItemCount; i++) {\r\n            if (idToMarketItem[i + 1].seller == msg.sender) {\r\n                uint256 currentId = i + 1;\r\n                MarketItem memory currentItem = idToMarketItem[currentId];\r\n                items[currentIndex] = currentItem;\r\n                currentIndex += 1;\r\n            }\r\n        }\r\n        return items;\r\n    }\r\n}",
  "sourcePath": "D:\\Lucent Training Modules\\solidity\\projects\\nft-frontend\\Nft-marketplace\\src\\smartcontract\\contracts\\NFTMarketplace.sol",
  "compiler": {
    "name": "solc",
    "version": "0.8.18+commit.87f61d96.Emscripten.clang"
  },
  "schemaVersion": "3.4.11",
  "updatedAt": "2023-02-20T05:40:51.265Z",
  "networkType": "ethereum",
  "devdoc": {
    "events": {
      "Approval(address,address,uint256)": {
        "details": "Emitted when `owner` enables `approved` to manage the `tokenId` token."
      },
      "ApprovalForAll(address,address,bool)": {
        "details": "Emitted when `owner` enables or disables (`approved`) `operator` to manage all of its assets."
      },
      "Transfer(address,address,uint256)": {
        "details": "Emitted when `tokenId` token is transferred from `from` to `to`."
      }
    },
    "kind": "dev",
    "methods": {
      "approve(address,uint256)": {
        "details": "See {IERC721-approve}."
      },
      "balanceOf(address)": {
        "details": "See {IERC721-balanceOf}."
      },
      "getApproved(uint256)": {
        "details": "See {IERC721-getApproved}."
      },
      "isApprovedForAll(address,address)": {
        "details": "See {IERC721-isApprovedForAll}."
      },
      "name()": {
        "details": "See {IERC721Metadata-name}."
      },
      "ownerOf(uint256)": {
        "details": "See {IERC721-ownerOf}."
      },
      "safeTransferFrom(address,address,uint256)": {
        "details": "See {IERC721-safeTransferFrom}."
      },
      "safeTransferFrom(address,address,uint256,bytes)": {
        "details": "See {IERC721-safeTransferFrom}."
      },
      "setApprovalForAll(address,bool)": {
        "details": "See {IERC721-setApprovalForAll}."
      },
      "supportsInterface(bytes4)": {
        "details": "See {IERC165-supportsInterface}."
      },
      "symbol()": {
        "details": "See {IERC721Metadata-symbol}."
      },
      "tokenURI(uint256)": {
        "details": "See {IERC721Metadata-tokenURI}."
      },
      "transferFrom(address,address,uint256)": {
        "details": "See {IERC721-transferFrom}."
      }
    },
    "version": 1
  },
  "userdoc": {
    "kind": "user",
    "methods": {},
    "version": 1
  }
}